:1000000070480020DD1000002D110000750F000069
:10001000750F0000750F0000750F0000750F0000D0
:10002000750F0000750F0000750F0000690B0000D0
:10003000750F0000750F0000250B0000750F000004
:10004000A1100000CB8E0100A1100000A110000043
:10005000A1100000A1100000A1100000A1100000DC
:10006000A1100000A1100000A1100000A1100000CC
:10007000A1100000A1100000A1100000A1100000BC
:10008000A1100000A1100000A1100000A1100000AC
:10009000A1100000A1100000A1100000A11000009C
:1000A000A1100000A1100000A1100000A11000008C
:1000B000A1100000A1100000A1100000A11000007C
:1000C000A1100000A1100000A1100000A11000006C
:1000D000A1100000A1100000A1100000000000000D
:1000E0009539000000000000ED0E00003062002095
:1000F0005B3E000000000000ED0E0000000000006C
:10010000ED0E000000000000ED0E000000000000F9
:10011000AD3C000000000000ED0E000000000000FB
:10012000ED0E000000000000ED0E000000000000D9
:10013000ED0E000000000000918E010000000000A4
:10014000ED0E00003C620020954000000000000021
:10015000ED0E000000000000ED0E000000000000A9
:10016000ED0E000000000000D5410000000000007E
:10017000ED0E000000000000ED0E00000000000089
:10018000ED0E000000000000ED0E00000000000079
:10019000ED0E000000000000ED0E00000000000069
:1001A000C58E010000000000ED0E00000000000000
:1001B000ED0E000000000000ED0E00000000000049
:1001C000ED0E000000000000ED0E00000000000039
:1001D000ED0E000000000000ED0E00000000000029
:1001E000ED0E000000000000ED0E00000000000019
:1001F000ED0E000000000000ED0E00000000000009
:10020000ED0E000000000000ED0E000000000000F8
:10021000ED0E000053B94AB9002908BF00281CBFE1
:100220004FF0FF314FF0FF3000F08EB9ADF1080C08
:100230006DE904CE00F01AF8DDF804E0DDE90223F0
:1002400004B07047430803F05533C01A830803F025
:10025000333300F03330184400EB101000F00F304F
:1002600000EB002000EB0040000E70472DE9F04746
:100270008C460D460446089E002B51D18A421746F3
:100280006DD9B2FA82FEBEF1000F0BD0CEF1200C78
:1002900001FA0EF520FA0CFC02FA0EF74CEA050CF6
:1002A00000FA0EF44FEA174A250CBCFBFAF81FFAC5
:1002B00087F90AFB18CC45EA0C4508FB09F3AB4269
:1002C0000AD9ED1908F1FF3280F02381AB4240F2E8
:1002D0002081A8F102083D44ED1AA4B2B5FBFAF062
:1002E0000AFB105544EA054400FB09F9A14509D968
:1002F000E41900F1FF3380F00A81A14540F2078143
:1003000002383C44A4EB090440EA08400021002ED6
:1003100061D024FA0EF4002334607360BDE8F087E6
:100320008B4207D9002E54D0002186E821000846D0
:10033000BDE8F087B3FA83F1002940F08E80AB422C
:1003400002D3824200F2FA80841A65EB0305012091
:10035000AC46002E3FD086E81010BDE8F08712B9F9
:100360000127B7FBF2F7B7FA87FEBEF1000F34D1D1
:10037000EB1B3A0C1FFA87FC0121B3FBF2F8250CAA
:1003800002FB183345EA03450CFB08F3AB4207D9DF
:10039000ED1908F1FF3002D2AB4200F2D180804665
:1003A000ED1AA3B2B5FBF2F002FB105543EA054487
:1003B0000CFB00FCA44507D9E41900F1FF3302D27D
:1003C000A44500F2B8801846A4EB0C0440EA0840AB
:1003D0009DE731463046BDE8F087CEF1200405FAAE
:1003E0000EF307FA0EF720FA04F83A0C25FA04F493
:1003F00048EA0308B4FBF2F14FEA184502FB114446
:100400001FFA87FC45EA044501FB0CF3AB4200FAF6
:100410000EF409D9ED1901F1FF3080F08A80AB426A
:1004200040F2878002393D44EB1A1FFA88F5B3FB8E
:10043000F2F002FB103345EA034500FB0CF3AB423C
:1004400007D9ED1900F1FF386FD2AB426DD90238F0
:100450003D44EB1A40EA01418FE7C1F1200722FA3F
:1004600007F88B4005FA01F448EA030320FA07FE77
:100470004FEA134CFD404EEA040EB5FBFCF94FEA7F
:100480001E440CFB19551FFA83F844EA054509FB85
:1004900008F4AC4202FA01F200FA01FA08D9ED18A8
:1004A00009F1FF3043D2AC4241D9A9F102091D4400
:1004B0002D1B1FFA8EFEB5FBFCF00CFB10554EEA0F
:1004C000054400FB08F8A04507D9E41800F1FF3502
:1004D00029D2A04527D902381C4440EA0940A4EBA0
:1004E0000804A0FB02894C45C6464D4615D312D0E0
:1004F00056B1BAEB0E0364EB050404FA07F7CB40E0
:100500001F43CC40376074600021BDE8F087184677
:10051000F8E69046E0E6C245EAD2B8EB020E69EB97
:1005200003050138E4E72846D7E7404691E78146CE
:10053000BEE7014678E702383C4445E7084608E74D
:10054000A8F102083D442BE7704700BF10B50278C0
:10055000202A034600F10100F9D0A2F10901042983
:10056000F5D92B2A05D02D2A0ABF012100210346E7
:1005700001E003460021013B00200A2413F8012F6B
:10058000303A092A02D921B9404210BD6043801A8D
:10059000F4E710BD2DE9F04186460F4605462C468E
:1005A00014F8013B202B03D0A3F10901042959D8E9
:1005B0002546F4E72B2B04BFAC1C6B784FF0000CE6
:1005C00056E0302B25D1237803F0DF03582B56D18A
:1005D0006378102202344FF0FF310026B1FBF2F1B4
:1005E00002FB01F86FEA08083046A3F13005092D37
:1005F00011D82B469A421EDD002E19DB884217D8EF
:1006000001D1434514DC02FB0030012614F8013B04
:10061000EBE70A22DFE743F02005613D192D0AD8F8
:10062000A3F14105192D8CBF572537255B1BE1E749
:100630004FF0FF36EAE7002E08DA1CF0A5FC26236F
:1006400003604FF0FF303FB9BDE8F081BCF1000F0F
:1006500000D04042C7B10EB104F1FF3EC7F800E040
:10066000BDE8F0812D2BA5D16B78AC1C4FF0010CAF
:10067000002AA6D0102AAED1302BA4D0ABE730236D
:10068000002AA8D10822A6E7BDE8F0810139034677
:1006900011F8012F0AB91A70704703F8012BF7E718
:1006A00010B5013903463AB111F8014F2CB91A447B
:1006B00003F8014B9342FBD110BD03F8014B013A03
:1006C000F1E7C9B2034610F8012B914206D0002A87
:1006D000F8D100290CBF1846002070471846704713
:1006E00002460346981A13F8011B0029FAD17047F5
:1006F0000138013910F8013F11F8012F934202D15E
:10070000002BF7D11A46981A704710B501390244E8
:10071000904209D0037811F8014FA34200D10BB9E0
:10072000181B10BD0130F3E7002010BD38B504469A
:100730000D46FFF7D5FF29462044FFF7A7FF2046C7
:1007400038BD70B582B1013A0C46034603D11A7820
:100750002078101A70BD1E782578AE4200F1010095
:1007600001F10101EFD0F2E7104670BD81EA00030C
:1007700013F0030F70B503460BD0013B0A449142BE
:100780001BD170BD002AFCD011F8014B03F8014BBE
:10079000013A9C07F6D11E1F0D46541B0C44032C36
:1007A00006D822F003042144234402F00302E4E7C4
:1007B00055F8044B46F8044FEFE711F8014B03F8E6
:1007C000014FDCE770B5C9B203469C0711D141EA7D
:1007D000012444EA04441E46951B1D44032D0ED8F3
:1007E00022F00304234402F003021A44934209D185
:1007F00070BD002AFCD003F8011B013AE5E746F87A
:10080000044BE9E703F8011BF0E70000012838B5C5
:100810000D4628DD15496868FFF76AFF044690B960
:10082000134D2B783BB9134800F0DEFE012000F099
:1008300061F801232B70104800F0D6FE0F4B012207
:100840001A70204638BD0E496868FFF751FF04460C
:1008500028B90C4800F0C8FE084B1C70F1E7696825
:10086000094800F0C1FE6FF01504EAE71DFE010023
:10087000000000202EE3010047E3010001000020FA
:100880005DE3010061E3010076E3010008B50A4879
:100890000A4C00F0A9FE0A4800F0A6FE094802F042
:1008A000B9FC4FF47A701CF093FE2378002BF8D03B
:1008B00000F02AF8F5E700BFACE3010001000020DA
:1008C000D1E301001AE401004B1E59425941014B8A
:1008D00019707047250000201FB501240294044CB4
:1008E0000194BDF8184000940AF08CFB04B010BDD0
:1008F00024000020024B187002480AF02FBB00BFF2
:1009000024000020AC5600200A4B1B788BB10A4B08
:100910001A780132D2B2A02A08BF5A221A70074AA6
:100920001B785370062111700223054900200AF03C
:1009300069BC704725000020A85600200200002056
:10094000305600200C4B1B78062B12D10B4B18682D
:1009500010F00F000DD104331B6803F0F003302BAF
:1009600008D1074B1B6813F0F00F0CBF01200020CB
:1009700070470020704700BFE00F00F0E40F00F068
:10098000EC0F00F008B54FF02003EFF3118183F373
:100990001188FFF7D7FF20B13B4AD36823F080735B
:1009A000D360FFF7CFFF10B1384B03221A60FFF777
:1009B000C9FF30B14FF080430022C3F80C21C3F8C7
:1009C0001021334B1B78062B17D1324B1B681807AD
:1009D00013D1314B1B6803F0F002302A03D003F02F
:1009E000E003402B09D14FF08043D3F80024D20715
:1009F00003D56FF00102C3F800244FF01023D3F8A1
:100A00000022002A03DBD3F80032002B2FDA234B1D
:100A10000122C3F80425D3F80024002AFBD04FF0AC
:100A200010221521C2F80012D3F80024002AFBD0AE
:100A30004FF010231522C3F80422184B1A46D3F89E
:100A400000140029FBD00021C3F80415D2F80034AB
:100A5000002BFBD0BFF34F8F1149124BCA6802F431
:100A6000E0621343CB60BFF34F8F00BFFDE70C4B39
:100A70004FF0FF329A62DA620B4B0C4A1A6081F334
:100A80001188002008BD00BFF0ED00E0A005004087
:100A9000E00F00F0E40F00F0E80F00F000E001408C
:100AA00000ED00E00400FA05FC5600200090D003A1
:100AB000084881684A897F2A0BD8C069884208D0D3
:100AC00000B51CF0D7FD5DF804EB03494FF08052F0
:100AD0000A6070472421002004ED00E00448002350
:100AE0002021C2180133272B82F80013F9D1704757
:100AF00000E100E0084A0949936809685966084915
:100B000018664B6843F080534B60002383F31188D1
:100B10009368586E704700BF24210020984502005A
:100B200000ED00E00E498A6828201044EFF3098C9C
:100B300080E8F01F0B4F4FF00066202080F31188F3
:100B4000CA698A603E60106E0023136680F31188C4
:100B500002F1280090E8F01F8CF30988704700002C
:100B60002421002004ED00E01EF0040F0CBFEFF381
:100B70000880EFF30980816931F8021C11F0FF0150
:100B800001D0022907D0404080F3118804494FF07A
:100B900080520A60704700B500F02CFA00BD0000DA
:100BA00004ED00E010B504461CF03AFD2268014651
:100BB000BDE81040014800F017BD00BFCEE50100C0
:100BC00010B504461A4800F00FFD04F11800194C46
:100BD000FFF7E8FFA36A9A0102D5174800F004FD69
:100BE000A36ADB0102D5154800F0FEFCA36A1803D6
:100BF00002D5134800F0F8FC0E4CA36A590302D545
:100C0000104800F0F1FCA36A9A0302D50E4800F0E8
:100C1000EBFCA36ADB0302D50C4800F0E5FC054AB7
:100C2000936A6FEA03436FEA1343936210BD00BFF8
:100C3000CFE6010000ED00E0E8E60100FCE601007F
:100C400017E7010036E701005CE7010077E70100E4
:100C500038B5044619480D4600F0C6FC04F11800EA
:100C6000174CFFF79FFFA36AD90604D51548BDE8C6
:100C7000384000F0B9BCA36A1A0701D51248F6E75C
:100C8000A36A9B070FD5114800F0AEFC616BA36A05
:100C9000180612D50E4800F0A7FC75B1A36A23F020
:100CA0008003A36238BDA36ADA0701D50948DEE7ED
:100CB000A36A9B0601D50848D9E738BD18E60100AC
:100CC00000ED00E02FE6010041E6010055E60100DD
:100CD0006EE601007FE601009FE6010038B504469C
:100CE0001D480D4600F080FC04F118001B4CFFF776
:100CF00059FFA36AD80404D51948BDE8384000F06C
:100D000073BCA36A190501D51648F6E7A36A9A05CC
:100D100014D5154800F068FCA16BA36A1B0407D525
:100D2000124800F061FC1DB1A36A23F40043A362E2
:100D30000A4B9B6A58050ED50D48DEE7A36A590594
:100D4000FAD4A36ADA0501D50A48D6E7A36A9B0458
:100D500001D50948D1E738BD95E4010000ED00E078
:100D60002FE6010041E60100ACE401006EE601005F
:100D7000C6E40100E2E401009FE6010038B5274D1A
:100D80006B68C3F30803DA1E0446092A3AD8DFE881
:100D900002F00533352F393939393937204800F019
:100DA00023FCEB6A9A0703D51E4800F01DFC0CE0FB
:100DB000EB6A5B0009D51C4800F016FC1B4B1B7846
:100DC0004BB101212046FFF743FF21460020BDE83B
:100DD000384000F013B9164B1B7823B1012120468F
:100DE000FFF77CFFF1E7134B1B889BB2002BECD085
:100DF0002046FFF7E5FEE8E70021E3E70021EEE704
:100E00000D48D2E70D480E49A3F110020F2BD8BFB1
:100E100001460C4800F0E8FBD7E700BF00ED00E01A
:100E200029E5010041E5010063E5010028ED00E04E
:100E300029ED00E02AED00E083E50100FBE401007C
:100E400010E50100BAE50100024A536943F01003BE
:100E50005361704700ED00E043B2002B08DB012234
:100E600000F01F0002FA00F05B09024A42F823007A
:100E7000704700BF00E100E043B2002B0DDB012210
:100E80005B0900F01F0002FA00F02033034A42F829
:100E90002300BFF34F8FBFF36F8F704700E100E077
:100EA0004209054B00F01F0053F82220012303FAEA
:100EB00000F01040704700BF00E100E043B2002B9B
:100EC000A8BF03F1604301F101014FEA4111ADBF39
:100ED00003F5614300F00F00034BC9B2B6BFC9B2BE
:100EE00083F800131954704714ED00E000F042B885
:100EF00008B572B6044B986918B100229A611CF0CB
:100F000049F862B608BD00BF24210020F8B50C46A0
:100F100016461F4604220A9B099905461CF092FEBC
:100F2000A6F1200121440C4AAC6521F00701002301
:100F300022F00102EB642B65EE658A61069A4A6035
:100F4000079A8A60089ACA600F604FF08072CA617F
:100F5000A9642B66F8BD00BFDDDA0100014910224B
:100F60000A60704710ED00E0404080F3118830BF08
:100F7000704700BF404080F31188DFF81CC0DCF8E8
:100F800000C01CF4006C0CBFEFF30880EFF3098085
:100F900000B5FFF7F3FE00BD04ED00E0042838B50E
:100FA00004460D4613D0052813D0032813D10C484E
:100FB00000F01AFB1CF034FBAA690146094800F056
:100FC00013FB29462046BDE8384000F017B8064814
:100FD000EEE70648ECE70146054800F005FBE9E7C7
:100FE000A3E7010021E80100C9E70100E3E70100F0
:100FF000FEE7010001460068FFF7D0BF052810B5E5
:101000000CD01CF053FD60B11CF050FD0C4B0D4991
:10101000002808BF19460C4800F0E6FAFFF7A4FFC5
:10102000FCE71CF053FD0028EED1084C0848A168ED
:1010300000F0DAFAA068BDE8104000F00BB800BF7D
:1010400061E801005DE8010072E801002421002050
:1010500092E8010038B505464FF02003EFF3118404
:1010600083F311881CF07DFD0B4B9B689D420DD1D5
:101070000A4B5A68C2F3080222B91CF0FBFA204658
:10108000FFF738FD5A6842F080525A602046BDE8AA
:1010900038401CF02BBA00BF2421002000ED00E0F6
:1010A00000B572B60B4A906900281EBF00219161FD
:1010B0001BF070FF62B6EFF30580A0F110004FEA5D
:1010C000C0000549014409C998475DF804EBFFF7E2
:1010D000EFBC000024210020DC000000202080F371
:1010E000118805484FF40061401880F309880220F8
:1010F00080F3148800F006B8B049002030BFFFF735
:10110000FDBF00BF08B5074B074A23F07F0393607C
:10111000BFF34F8FBFF36F8F1BF076FF1BF07EFF87
:101120001BF0A4FF0000000000ED00E008B5FFF791
:10113000E5FFBDE80840FFF7BBBC0000154B1649B2
:101140001A6830B50D68C2F3072295420FD8002205
:1011500048685A60954200F10C000AD105225A6095
:101160000E4B01221A70BFF34F8FBFF36F8F002019
:1011700030BD50F80C1C50F8044C9A6021F01F014F
:1011800041F01001114344F00104D96001321C61A7
:10119000E0E700BF90ED00E0B856002026000020F8
:1011A00010B5C47AC0688C424FF00C04B6BF6143DE
:1011B00004FB01014158202492FBF4F401EB84016B
:1011C000196002F01F0010BD07B501ABFFF7E8FF83
:1011D000019A012303FA00F013680343136003B07C
:1011E0005DF804FB2DE9F047436805890446006873
:1011F000A77A5D43284400214FF00C0E4FF0200CDD
:10120000B94205DB002523899D4223DBBDE8F08739
:10121000D4F80C90B5FBF3F20EFB01F81F2A09EB92
:1012200008064FEA930306F1040AC8BF1F3203F110
:101230000303C6F804A0C6F808A0CABF92FBFCF2DC
:10124000E17249F8080023F00303C8BF00EB8200F5
:101250000131D5E76268E36820686A431E1D865045
:1012600081189A684A609A682046116099602A46F7
:101270000021FFF7A9FF0135C5E7002070470000F6
:101280000B6801330B60014B1B68184700570020A7
:101290002DE9F04F85B09B460E9CDFF890A0012C05
:1012A000B8BF0124012B0CBF3023202315468046F4
:1012B00089460194029301260A2700220AF10104BB
:1012C0000AB9AA451FD2B5FBF4F049463030C047F1
:1012D00001360122013F012FB5FBF4F14FF00A0363
:1012E00004FB1155BAFBF3FAE8D1494605F1300089
:1012F000C047BBF1030F03D1019B9C1B002C0FDCEB
:1013000005B0BDE8F08F019BBB42E3DBBBF1020FF0
:10131000E0D84946029803920136C047039AD9E7BC
:1013200049462020C047013CE8E700BFFFC99A3B7F
:101330000A688B6830B512B14C68A34202DB0133F6
:101340008B6030BD651EAB420BBF8C605C1C002106
:101350008C600CBFD154D05430BD0000014B1860DC
:10136000704700BF005700202DE9F04F89B04FF0C3
:10137000000A06460F4604921C464FF0FF39D0463D
:101380005546049B187810B909B0BDE8F08F45B9EF
:10139000252800F00C813946B047049B01330493A3
:1013A000EFE7642861D019D839280AD8312850D2FB
:1013B0002D283CD030283DD0252808D13946B047CB
:1013C0006FE0582800F08980632800F0EA803946F1
:1013D0002520B047049B39461878F0E7702872D072
:1013E00006D8692841D06C283CD06828D5D0EEE7D3
:1013F000752858D017D87328E9D1236804F1040B55
:101400001C46254615F8010B002840F0BF80B8F1B6
:10141000030F40F0D580E41AA9EB0404002C00F37C
:10142000BB805C463DE0782857D07A28DEE74FF055
:101430000308B2E7B9F1000F0EDAB8F1000F00F0BF
:10144000BC80A0F13009B8F1000F08BF4FF00208CE
:10145000A3E7B9F1000FF4DB0A2303FB0909A9F1A3
:101460003009F0E70AF1010A97E7BAF1010FC5BFA9
:10147000073424F0070325681D68D4BF043403F142
:101480000804002D05DA39462D20B0476D4209F1D8
:10149000FF39CDF8009043462A4639463046FFF7DB
:1014A000F7FE002579E7BAF1010FC5BF073424F034
:1014B000070322681A68CDF80090CCBF03F1080436
:1014C00004344346E9E739463020B04739467820AE
:1014D000B0474FF008094FF00108BAF1010FC7BF3C
:1014E000073424F0070323680593C2BF03F10804FF
:1014F0001B6805934FF008024FF00003D8BF043477
:101500000393079393460BF1FF3B059B4FEA8B0038
:1015100023FA00F010F00F0009D1079B13B9BBF1BB
:10152000000F22D14FF0300E07E0069AEBE70928B2
:101530008CBF4FF0570E4FF0300E39467044069274
:10154000B047039B079501330393BBF1000FECD128
:10155000B8F1030FA5D1039BC3EB4905002DA0DD16
:1015600039462020B047013DF8E7531E91450693C8
:10157000EBDBB8F1010F03D139463020B047E4E787
:10158000B8F1020FE1D139462020F7E7394603933D
:101590002C46B047039B34E739462020B047013C36
:1015A0003CE72068251D3946B0472C4679E7AA4616
:1015B000A8464FF0FF390125EFE64FF00108ECE6B1
:1015C0005C460546E9E6000013B502AC002344F88A
:1015D000043D02460B4603482146FFF7C5FE01982D
:1015E00002B010BD811200000FB407B504A951F874
:1015F000040B0191FFF7E8FF03B05DF804EB04B0C2
:10160000704700000CB430B585B008AB044653F801
:10161000042B01900291002501A90748009303952E
:10162000FFF7A2FE0398029B9842B8BF255405B06D
:10163000BDE8304002B070473113000070478B4264
:1016400038B515461C4605D81A462946FFF78EF8C8
:10165000204638BD0024FBE7FFF7B4B8C3095A00A1
:10166000134403EBC30383EA4000C0B270472DE983
:10167000F0410646A8B00F46144640254FF020081A
:1016800000F066F9034618B9002028B0BDE8F081E3
:10169000402108A898470028F6D0B4F9023004F198
:1016A000240208A968461F3393FBF8F35BB200F0ED
:1016B000ECFA2246694618A800F009FF00B3B4F915
:1016C00002306A4607333846082193FBF1F100F0F7
:1016D00026FF18AA94F90110304600F020FF94F973
:1016E000011094F9002018AB03EB8202701800F08F
:1016F00016FF202200216846FFF764F80120C4E7A6
:10170000013DBDD1C0E72DE9F04F9146A5B0B3F939
:10171000022093F9017093F900B004AD82464FF0B6
:1017200008080CAE2846073292FBF8F21C460295D8
:10173000039600F008FF3A46514614A800F003FF54
:1017400014AB0AEB070103EB8B003A4600F0FBFEFB
:10175000234632462946284600F08DFEB0FA80F036
:10176000019424AB400903EB8000638801331BB272
:10177000009314A9002350F8882C084600F0AAFD15
:1017800014AA3946484600F0CAFE214614A800F0C3
:1017900018FD0DEB08040746424600212046FFF7DE
:1017A00011F8202200213046FFF70CF820220021FA
:1017B0002846FFF707F8B7FA87F0400925B0BDE8DB
:1017C000F08FF0B500248646204665B2AB4200DCBF
:1017D000F0BD51F8245052F824602E440644B5421E
:1017E0008CBF0125002514BF0127002707FB05F743
:1017F0000CBF054600254EF8246047EA0500013479
:10180000E3E700EB81010023884200D3704751F8E1
:10181000042C43EA520341F8043DD307F4E703687C
:1018200070B513F001050646144605D013460A4666
:101830000146FFF7C6FF054621463046FFF7E1FFA8
:1018400045B104F18042013A56F8223043F000439A
:1018500046F8223070BD2DE9F04F87B00392002288
:101860000291154614464FFA82F8984514DB4FF062
:10187000FF3C00220CEB430C00929DF8002002EB91
:10188000030E4FFA8EFEE64533DB00EBC30040F853
:10189000044C07B0BDE8F08F039E4FF0000E06EB3E
:1018A0008209F446029959F8047951F82E6001959D
:1018B00000250095A7FB06ABDDE9006746EA0406B4
:1018C00016EB0A0447EB0B055D450EF1010E08BF50
:1018D00054454FFA8EFA264634BF01240024D045E1
:1018E000A4443446DEDA40F822602C4601326546D4
:1018F000B9E701322F4652B200259A4206DB009A20
:1019000040F82E40013200923C46B6E7AEEB0206AC
:101910000399059751F82660029951F82210A6FB09
:1019200001AB00210491DDE9046746EA040616EBE9
:101930000A0847EB0B09D94508BFD04534BF01243D
:101940000C46013225444F4652B24446D5E70000CA
:10195000014B1868704700BF04570020002310B5E2
:101960001C465AB2914200DC10BD40F823400133BE
:10197000F7E710B500231A465CB2A14203DCB2FAC5
:1019800082F0400910BD50F8234001332243F3E7B1
:101990004A11012350F8220001F01F0103FA01F15E
:1019A00008407047013949B2002904DA013149B2CF
:1019B00031B90846704750F82130002BF2D0F5E7D6
:1019C00001F18043013B50F82330002023B9013955
:1019D00000EB411108B270475B080130F6E710B523
:1019E00000235CB2A24200DC10BD51F8234040F855
:1019F00023400133F5E710B5013A52B2002A01DA6B
:101A0000002010BD13B250F8234051F823309C42FF
:101A100003D8F1D24FF0FF3010BD012010BD30B51A
:101A2000013A52B20023002A03DA181C18BF012021
:101A300030BD15B2013A50F8254051F825506C40A0
:101A4000234352B2EFE7F0B500248646204665B244
:101A5000AB4200DCF0BD51F8245052F82460AE1BBC
:101A6000361AB54234BF0125002514BF01270027CF
:101A700007FB05F70CBF054600254EF8246047EA32
:101A800005000134E3E70000F0B5082289B00C46F8
:101A90000646FFF7A4FFCB6A03930B6B04934B6BD3
:101AA00005938B6B0693CB6B0793002708236A463D
:101AB00069466846029701970097FFF782FE082360
:101AC00005466A4631463046FFF77BFE236B03939B
:101AD000636B0493A36B0593E36B069305440823A0
:101AE0006A46694668460797FFF76BFE0823054478
:101AF0006A4631463046FFF764FE236A0093636A04
:101B00000193A36A0293A36B0693E36B07930544C7
:101B100008236A4631463046059704970397FFF736
:101B200050FE636A0093A36A0193E36AA26B029377
:101B3000636B039304920693E26B236A0592054458
:101B400007936A46082331463046FFF73AFEE36AB8
:101B50000093236B0193636B0293236A0693A36A3A
:101B60000793054408236A46314630460597049793
:101B70000397FFF768FF236B0093636B0193A36BDD
:101B80000293E36B0393636A0693E36A07932D1A48
:101B900008236A463146304605970497FFF753FFFE
:101BA000636B0093A36B0193E36B0293236A03932C
:101BB000636A0493A36A0593236B07932D1A082382
:101BC0006A46314630460697FFF73DFFA36B009308
:101BD000E36B0193636A0393A36A0493E36A059337
:101BE000636B07932D1A08236A46314630460297E5
:101BF0000697FFF728FF2D1A0D4C0FD435B9082290
:101C000031462046FFF7F7FE01280FD00823224671
:101C100031463046FFF717FF2D1AEFE7082322461B
:101C200031463046FFF7CDFD2D18F7D409B0F0BD91
:101C3000BCE8010070B59DF910401E4623460546DC
:101C4000FFF7BFFD30B9224629463046FFF7D3FEE5
:101C5000012807D02346324629462846BDE8704071
:101C6000FFF7F1BE70BD70B59DF910401E462346CA
:101C70000546FFF7E8FE38B1234632462946284696
:101C8000BDE87040FFF79DBD70BD2DE9F04FA5B0D8
:101C90001D46039114AB2946804610461746029311
:101CA000FFF780FEC0EB851004B2634203F01F0310
:101CB0004FF0200694FBF6F676B204F01F0904A854
:101CC00058BFC3F100093146FFF748FEB9F1000FD4
:101CD00030B22BDD04AB002203EB8000C9F1200EF3
:101CE0001346AB4217D32FB27B00019304AB03EB37
:101CF000870705F1FF3924AB012603EB8909002C86
:101D000055DB24AB0022C6F10100964603EB860AA0
:101D100003EB80002DE057F8236006FA09F10A432F
:101D200040F8232026FA0EF20133DAE704AB2A4604
:101D3000394603EB8000FFF752FED4E70FFA81FC2F
:101D40005AF8883C53F82CB024AB03EB810151F8CE
:101D5000803CABEB0303A3EB0E039B4504D034BFE5
:101D60004FF0010E4FF0000E50F8881C41F82C3057
:101D70000132019B51B29942E0DBA6EB0E035E42B9
:101D8000294604A85E41FFF73CFD24AB03EB850325
:101D9000294653F8802C59F8803C384643EAC273F0
:101DA000013C49F8803C24B2FFF72BFDA7E724ABA8
:101DB00003EB86062A4656F8881C4046FFF70FFEBE
:101DC00025B0BDE8F08F30B51C4691B0054693F9BB
:101DD00000306846FFF73FFDD4F8AC30694628462E
:101DE000984711B030BD13460A46FFF7ECBF2DE906
:101DF000F04793F9006092B0044689461046314698
:101E000015469846FFF7B5FD002840F093804246FE
:101E1000494602A8FFF7E7FF434602AA21460AA85F
:101E2000FFF7D1FF02A908464246FFF7DCFF434611
:101E30002A4649464846FFF7C6FF08F104074246CE
:101E400029462846FFF7CFFF3B462A462146204633
:101E50000096FFF7EFFE3B462A46294628460096A5
:101E6000FFF7E8FE3B462A46214628460096FFF744
:101E7000FAFE43462A4621462046FFF7A4FF3B468A
:101E80002246214628460096FFF7D4FE3B460096A0
:101E90002A4621462046FFF7CDFE2368DB074CD5B6
:101EA00033463A4621462046FFF78BFC31468246B0
:101EB0002046FFF7A6FC06F18043013B54F82300BF
:101EC00040EACA7044F82300424621462846FFF7FC
:101ED0008AFF3B460AAA294628460096FFF7C3FE1A
:101EE0003B460AAA294628460096FFF7BCFE0AA9E7
:101EF00008463B462A460096FFF7B5FE43460AAA27
:101F000021462046FFF75FFF02AA3B4610462146C6
:101F10000096FFF7A8FE324629462046FFF75FFDF0
:101F2000324649462846FFF75AFD324602A948463E
:101F3000FFF755FD12B0BDE8F08731462046FFF7A8
:101F400060FCC1E72DE9F04115468AB00446884699
:101F50002022002102A8FEF735FC2E1D95F9007005
:101F600003232A46414620460293FFF73CFF3346AF
:101F700002AA214620460097FFF775FE2B464246EF
:101F800021462046FFF71FFF0097334605F18402E4
:101F900021462046FFF74EFE0AB0BDE8F0812DE94C
:101FA000F0439BB01646229C14F9045B00959846BA
:101FB0000746894623460246314602A8FFF753FEEC
:101FC00002A9229A0846FFF70EFF229B02AA394671
:101FD0003846FFF7F8FE229B02AA31463046FFF74B
:101FE000F2FE23464A46414602A80095FFF722FE2C
:101FF00023464A46414640460095FFF734FE2346B5
:102000003A4631460AA80095FFF72DFE229B0AAA00
:1020100049464846FFF7D7FE2346324639460AA8C6
:102020000095FFF707FE229A41463046FFF7DBFE98
:1020300023460AAA314630460095FFF714FE234690
:102040003246394612A80095FFF70DFE229B12AAD0
:1020500041464046FFF7B7FE23464A4641464046C2
:102060000095FFF700FE229A02A912A8FFF7BBFE17
:1020700012A923460AAA08460095FFF7F4FD234655
:102080003A4612A90AA80095FFF7EDFD0AA9229B7E
:1020900002AA0846FFF797FE23464A460AA9484681
:1020A0000095FFF7E0FD2A4612A93846FFF797FC96
:1020B0001BB0BDE8F083F0B50F46A1B00646194647
:1020C000384615461C46FFF754FC28B121463046D9
:1020D000FFF744FC21B0F0BD224639466846FFF7C1
:1020E0007EFC2246294608A8FFF779FC214610A865
:1020F000FFF734FC0123214618A81093FFF72EFCAC
:10210000224608A96846FFF776FC28B9224610A99E
:102110003046FFF764FCDDE7009BDA0709D421466F
:102120006846FFF76EFB2246294610A8FFF777FBAB
:10213000E6E7089BDB0707D4214608A8FFF761FB09
:102140002246294618A8F1E7002823461CDD08AAE4
:1021500069466846FFF777FC21466846FFF751FB62
:10216000224618A910A8FFF746FC002805DA10A996
:1021700023462A460846FFF724FB10A9234618AA3F
:102180000846FFF760FCCEE708A96A460846FFF755
:102190005AFC214608A8FFF734FB224610A918A8CC
:1021A000FFF729FC002805DA18A923462A46084625
:1021B000FFF707FB18A9234610AA0846FFF743FCC0
:1021C000BEE70978490049B2FFF7D3BBF0B5154621
:1021D00089B01C4607460E461A4629466846FFF750
:1021E00002FE23466A4639463846FFF7ECFD234691
:1021F0002A4669466846FFF7E6FD23466A463146A9
:102200003046FFF7E0FD09B0F0BD2DE9F0438BB09B
:102210001446129D15F9046B00961F4680468946A8
:102220002B460246214602A8FFF71DFD02A9129A7D
:102230000846FFF7D8FD129B02AA41464046FFF729
:10224000C2FD129B02AA21462046FFF7BCFD2B4689
:102250004A46394638460096FFF705FD129A394638
:1022600002A8FFF7C0FD02A92B4642460846009689
:10227000FFF7F9FC02A92B46224608460096FFF715
:10228000F2FC2B464246214620460096FFF7EBFC27
:10229000129B224649464846FFF795FD2B4602AA67
:1022A000414620460096FFF7DEFC129B2246394647
:1022B0003846FFF788FD2B464A4639463846009691
:1022C000FFF7D1FC324602A92046FFF788FB0BB08E
:1022D000BDE8F0832DE9F04FB1B01E463B9C049061
:1022E00094F90070069218A83A460591FFF777FB1B
:1022F000BB000793059BBA00134419463A4628A829
:102300000293FFF76CFB94F90050002E00F08980D7
:102310002A46314608A8FFF762FB10AE2A4618A9E4
:1023200030460DF18009FFF75AFB2A4628A9484696
:10233000FFF755FB234608AA28A918A8FFF746FF70
:10234000D4F8A450234608AA28A918A8A8472346C9
:1023500008AA49463046FFF739FFBDF9E850023D6B
:102360002DB2002D64DC069B1D68009405F001066B
:1023700010AB7601ED4303EB060805F0010520AB39
:102380001E446D0110AB03EB050920AB1D4404F1A5
:10239000040A2B464A4631464046FFF700FE5346A4
:1023A00010AA18A908A80097FFF75DFC08A9234602
:1023B00032460846FFF707FD08A92346059A084656
:1023C000FFF701FD08A93B4652460846FFF773FE9A
:1023D00008A92346029A0846FFF7F5FC08A92346F8
:1023E00042460846FFF7EFFC009433464246294632
:1023F0004846FFF70AFF234608AA20A910A8FFF7BE
:10240000E5FE3A4610A90498FFF7E9FA049B079CF9
:1024100023443A4620A91846FFF7E1FA31B0BDE857
:10242000F08F294608A8FFF799FA0123089374E76B
:1024300029460698FFF7ACFAB0FA80F04009C0F1DF
:1024400001084FEA4818400106EB080B06EB000AAA
:10245000C84409EB00035246414658460094039392
:10246000FFF79DFD009443465A4603995046FFF7F7
:10247000CCFE013D74E72DE9F041B3F902500F465F
:1024800003F12406904605F11F04202294FBF2F488
:1024900064B20146234632463846FFF792F990B9B6
:1024A000B5EB441F11DA29463846FFF771FA051CCF
:1024B00018BF01252346324639464046FFF781F9C9
:1024C0002846BDE8F0810125F4E70546F2E730B57E
:1024D000144695B005460CAA2346084604A9029165
:1024E0000392FFF7C8FFB0FA80F014AB400903EB8A
:1024F00080006388019401331BB2009350F8482C8C
:10250000002304F144012846FFF7E4FE2146284653
:10251000FFF757FEB0FA80F0400915B030BDF0B5B6
:1025200000254F1E6CB28C4205F1010500DBF0BDA9
:102530003B1B23F0030603F003039659DB0026FA46
:1025400003F30355EEE7F8B5144604230E46D11CF9
:1025500091FBF3F149B20546671EFFF7FFF9002230
:1025600051B28C4202F1010200DCF8BD7B1A23F06B
:102570000300715C03F00303DB0001FA03F3295845
:1025800019432950ECE72DE9F04190B006460C467E
:1025900091F90050FFF715FE48BB04F104082A46E4
:1025A00031464046FFF727FA012823D106EB85077D
:1025B0002A4639464046FFF71EFA01281AD122461C
:1025C00039466846FFF70FFCD4F8A830224631465A
:1025D00008A898472A4608A96846FFF720FA002865
:1025E00014BF6FF00200002010B0BDE8F0814FF082
:1025F000FF30F9E76FF00100F6E770B50C4690B0D8
:10260000254691F90120064601466846FFF79BFFE3
:1026100094F9012015F9440BB1180DEB8000FFF778
:1026200092FF102229466846FFF7E5F928B12146B6
:102630006846FFF7A8FF10B070BD6FF00300FAE71F
:10264000CB780278534003704B88427853404370F4
:102650000A68837883EA122383700A68C378534038
:10266000C370CB79027953400371CB8842795340D0
:1026700043714A68837983EA122383714A68C37974
:102680005340C371CB7A027A53400372427A4B892A
:10269000534043728A68837A83EA122383728A687A
:1026A000C37A5340C372CB7B027B53400373CB8905
:1026B000427B53404373CA68837B83EA122383734C
:1026C000CA68C37B5340C37370471FB502788DF847
:1026D000002042798DF80120827A8DF80220C27B99
:1026E0008DF8032002798DF80420427A8DF80520B8
:1026F000827B8DF80620C2788DF80720027A8DF84B
:102700000820427B8DF8092082788DF80A20C27952
:102710008DF80B20027B8DF80C2042788DF80D206F
:10272000C37A82798DF80E208DF80F3010236A4617
:102730001946FEF784FF05B05DF804FBF8B50646C0
:1027400008780C46FEF78AFF05466078FEF786FF9C
:10275000A27863785340E27853405D40454035703D
:1027600060782778FEF77AFF0546A078FEF776FFB7
:10277000A3785F40E3785F407D4045407570A07866
:1027800065782778FEF76AFF6F400546E078FEF728
:1027900065FFE3785F407D404540B5702078FEF7E7
:1027A0005DFF637825785D40A3785D404540E07823
:1027B000FEF754FFEDB26840F070F8BDF0B5284E5A
:1027C00007460C460FCE8DB001AD0FC50FCE0FC51D
:1027D00096E8070085E80700002F3CD0002C3CD08D
:1027E000381F2146024610344B780D781B0443EA0B
:1027F0000563CD782B438D78043143EA05238C4261
:1028000042F8043FF0D1174C04218A07036918D11C
:102810004FEA33631A0EA55CDAB2A25C42EA0562A3
:10282000C3F30745C3F30723655DE35C42EA054252
:1028300042EA03220CAD21F003032B4453F82C3C55
:10284000534050F8042F013153402C290361DCD14F
:1028500001200DB0F0BD3846FBE72046F9E700BF88
:10286000A4E2010068E901002DE9F043154689B0B2
:10287000804600285BD000295AD0002A5AD0102365
:102880000A4668461946FEF7DAFE294668462A4C8B
:10289000FFF7D6FE05F11007A146A03500261DF86A
:1028A0000630E35C0DF806300136102EF7D168468D
:1028B000FFF70BFF694604A8FFF740FF01A905A831
:1028C000FFF73CFF02A906A8FFF738FF03A907A8F6
:1028D000FFF734FF334604AA31466846FEF7AFFEE1
:1028E000394668461037FFF7ABFEBD42D6D1002609
:1028F0001DF8063019F803300DF806300136102E99
:10290000F6D16846FFF7E1FE29466846FFF798FED4
:1029100033466A4631464046FEF791FE68463246E7
:102920000021FEF799FE012009B0BDE8F083FBE726
:102930000846F9E71046F7E768E9010010B591F994
:102940000030002B01F10F02B4BF872300230F30AA
:1029500014788A4283EA440300F8013903D012F85C
:102960000139DB09F4E710BD08B528B15822002170
:10297000FEF772FE012008BD08BD10B5044690B1F7
:1029800010220021FEF768FE04F130001022002121
:10299000FEF762FE0023636400224FF48033C4E933
:1029A0001423012010BD10BD70B50D461646044617
:1029B00018B319B358220021FEF74EFE2946A6642B
:1029C0003046FFF7FBFE204610220021FEF744FEB2
:1029D00004F11005A26C21462046FFF745FF214671
:1029E0002846FFF7ABFF294604F12000FFF7A6FFBA
:1029F0002046FFF7C2FF012070BD70BD084670BDC4
:102A0000F8B50D461646044600285BD00AB90120E9
:102A1000F8BD002956D0D0E9142352EA030151D061
:102A200012F1FF3243F1FF33C0E91423406C48B385
:102A3000C0F11007BE4200F1300009D233463146E2
:102A40002A462044FEF7FBFD636C1E446664DEE705
:102A50003B462A4639462044FEF7F1FD00236364D5
:102A6000F61B3D44631E04F10F005A7893F83110B1
:102A70004A4003F8012F8342F7D1A26C2146204639
:102A8000FFF7F2FE04F10F07102E11D9631E691E25
:102A90005A7811F8010F424003F8012FBB42F7D1D9
:102AA000A26C21462046FFF7DFFE1035103EEBE713
:102AB000002EACD033462A46314604F13000FEF7F2
:102AC000BEFDC3E70020F8BD70B50C46054670B3E7
:102AD00071B34A6C102A1AD101F11002611E013A39
:102AE00004F10F0691F831004B78434012F8010FC2
:102AF000434001F8013F8E42F4D1A26C21462846A2
:102B0000FFF7B2FE2046FFF72FFF012070BD02F154
:102B100030000021C2F110022044FEF79DFD636CDD
:102B20002344802283F8302004F12002D6E770BDD0
:102B3000084670BD08B5024800F022FB002008BD21
:102B400068EA0100012802BF024B00221A6000203F
:102B5000704700BFE8010020024B01221A700020DC
:102B6000704700BF0C02002070B50E460446216875
:102B7000254609B90D4605E03046FDF7B9FD10348C
:102B80000028F4D1284670BD2DE9F0410B4D0C4CC6
:102B9000641B804624110027A74202DB0020BDE809
:102BA000F0813B014046E958EE18FDF7A1FD10B950
:102BB0003046BDE8F0810137EEE700BFB462002087
:102BC000C46200202DE9F8430E4C0F4B0F4F1B1B26
:102BD0009B1080465F4300264FF00C09BE4202DB8B
:102BE0000020BDE8F88309FB06F31422E1584046B3
:102BF000E518FDF78AFD10B92846BDE8F8830136CF
:102C0000ECE700BF90620020B4620020ABAAAAAA41
:102C100010B50446FDF764FD142806D90D48214679
:102C2000FEF7E2FC6FF0150010BD2046FFF7CAFF6B
:102C300010B921460848F3E7084B142218602146D2
:102C40000748FDF72DFD07490548FDF76FFD0020FA
:102C500010BD00BF9CEB0100D0EB0100E80100209B
:102C6000EC0100206DEA010008B50A4B1B682BB986
:102C7000094B1B6833B9094B186802E098470028D4
:102C8000F6D008BD9B680BB9054808BD98470028D9
:102C9000F7D1F9E72C000020E80100201002002005
:102CA000EC01002038B58268084B0D4604460168E7
:102CB0000748002A08BF1A46FEF796FC25B1E168CE
:102CC00011B10448FEF790FC002038BDB634020074
:102CD000E9EC010054EB010001282DE9F041064622
:102CE0000C4625DD4868FFF76DFF054650B1022E02
:102CF00021D0A46868682146FFF736FF58B92146FD
:102D000037480FE0374B64681D68002DF2D120462C
:102D1000FFF73AFF20B10121BDE8F041FFF7C2BF44
:102D200031482146FEF760FC6FF01500BDE8F081E8
:102D30002C4B1D68D5B12D482D4FDFF8F080FEF7E4
:102D400053FC00266B689C599A192CB92948FEF748
:102D50004BFC0020BDE8F08192682146002A08BFA4
:102D60003A464046FEF740FC1036EBE72248234C3B
:102D7000FEF73AFC224B1B1B162B02D82148FEF70C
:102D800033FC214B214EDFF89C801B1B9B105E43C4
:102D900000250C27B54213DB1D481E4DFEF724FC11
:102DA0001D4B5B1B1E2B02D81C48FEF71DFC1C4C48
:102DB0001C4F641B24110026A64209DB1A48C6E7F3
:102DC00007FB05F34046E158FEF70EFC0135E1E74D
:102DD00033013846E958FEF707FC0136ECE700BF3F
:102DE00088EA0100E801002070EA01009EEA010083
:102DF000B6340200AEEA0100D6EA0100906200207B
:102E0000BF620020E1EA0100B4620020ABAAAAAAD6
:102E1000F9EA0100B4620020D362002006EB010051
:102E2000C462002054EB01001FEB0100A4EA010082
:102E3000012802D04868FFF7EBBE024B0020186063
:102E4000704700BFE80100202DE9F04F442989B008
:102E50008146884601D9002069E000234354044696
:102E6000234613F8012B202A16D0002AF3D0504E07
:102E7000202120463768FDF724FCD6F800B0002F4B
:102E800014BFA2464FF0000A0546BBF1000F05D063
:102E90000028E0D0F7B9DEE71C46E1E70028DAD0E9
:102EA000061B721C132AD6DC214603A8FDF7F8FB8B
:102EB00008AB1E4403A806F814BCFFF783FE0746C0
:102EC0000028C8D005F1010A20215046FDF7F9FB82
:102ED0000028C0D05046FDF703FC4FF0000B0190D6
:102EE0004FF0FF345D467A6852F80B6016BB002D38
:102EF000B1D0002C48DBFFF7B7FE01462D48FEF7A6
:102F000073FB49462B48FEF76FFB019BDFF8B4A02B
:102F1000EF187B1B9C423DDC2EB12748FEF764FB7B
:102F2000202309F80830019BA019C01AC0B209B0CB
:102F3000BDE8F08F3146019A5046FDF7E6FB0646A4
:102F400018B92DB97A6852F80B500BF1100BCAE77B
:102F5000002C07DA29461948FEF746FB2846FDF7FC
:102F6000BFFB0446A6427A6805DA52F80B10A85D4A
:102F7000895D884206D052F80B101148FEF734FBE9
:102F80003446E2E70136EDE72846FDF7A9FB0126C6
:102F90000446BAE739785046FEF726FB08F10103EC
:102FA00017F8012B09F808205FFA83F8B1E700BF92
:102FB000E8010020E6EC01003E42020053EB010074
:102FC00054EB010058EB010070B58CB00546FDF7DD
:102FD00087FB0446F8B12B461C78202C184603F1D9
:102FE0000103F9D0BCB10CAD012445F82C0D00262D
:102FF0002021FDF766FB40B1034603F8016B18463C
:1030000013F8012B202AFAD01ABB0CAB03EB840374
:10301000002243F82C2C2646C4B101992D48FFF715
:10302000A3FD0546002833D10198FFF7ADFD054605
:1030300070BB012C284A17D11368ABB92749284B1C
:103040005B1A1E2B10D82748FEF7CEFA6FF0150436
:103050003CE045F8240001340B2CC9D10A21224858
:10306000FEF7C2FA0024D6E7136853B9012C11DC2D
:103070001E4B1B6833BB01991D48FEF7B5FA1D486E
:10308000E2E701995868FFF76FFD05460028EDD08B
:1030900001A90DE00198FFF795FD0028E8D00299FD
:1030A0004068FFF761FD05460028E1D0661E02A9D1
:1030B0006B6830469847041E08DA00212846FFF75F
:1030C000F1FD03E0204601A99847044620460CB0D4
:1030D00070BD00BF5CEB0100E8010020B46200207D
:1030E000D362002072EC010053EC010028000020A4
:1030F0009FEC0100B9EC01002DE9F0411749184897
:10310000184E194FDFF87480FEF76EFA1748FEF775
:103110006BFA0025337833B92DB9FFF7A5FD0146C9
:103120003846FEF761FA4FF0FF3140461AF087F853
:103130000F4B1B68044605305BB12279D20708D5D6
:103140000C4A11689847012521460B481AF053F89C
:10315000E0E7FFF739FF0025F6E700BFFBEB0100D2
:1031600003EC01000C020020E6EC010025EC01005C
:10317000080200200402002030000020D8010020B6
:1031800010B5044686B018481AF004F817481AF02B
:1031900001F8174915481AF02EF8164913481AF085
:1031A0002AF8154911481AF026F8144B1449154805
:1031B000002C08BF1C46144B6FF008021C60002353
:1031C0000593049303920293019300934FF4FA62E0
:1031D0000E4B1AF0A8FC0E4A0349044806B0BDE89D
:1031E000104000F091BA00BFD8010020300000204C
:1031F00040000020C800002050010020B63402002A
:10320000F02300201402002010020020F9300000FA
:10321000492E000008B5FFF7FBFC28B90349044814
:10322000BDE80840FEF7E0B908BD00BFEC01002092
:10323000E5EC010013B5114CBFF35B8F2068BFF3C1
:103240005B8F60B90E4819F079FEBFF35B8F54E8CD
:10325000003F44E80002002AF9D1BFF35B8F4368C6
:1032600004221B680DEB02019847002802DA01F0E6
:103270001FF80190019802B010BD00BF7C02002031
:1032800039ED010043685B6A03B118477047436832
:103290005B6818470A2838B50446064D03D10D214E
:1032A0002868FFF7F4FFE1B22868FFF7F0FF204637
:1032B00038BD00BFA002002000B5BFF35B8F50E80F
:1032C000003F43EA010240E8002EBEF1000FF6D1B4
:1032D000BFF35B8F18465DF804FB0000F8B5144E91
:1032E00004460D4630680821FFF7D1FF37464DB937
:1032F00020213068FFF7CBFF30680821BDE8F84097
:10330000FFF7C5BF0B48FEF76FF92544AC4208D163
:1033100038682021FFF7BBFF0748BDE8F840FEF7FB
:1033200063B9617804F8011B3868FFF7B0FFEDE777
:10333000A002002043ED010047ED01002DE9F04F10
:10334000DFF8E082AE4F85B0C146D8F80000436890
:10335000DB6B1BB3984708B3D8F8000043689B6B3E
:10336000E3B19847D0B1D8F800004368DB6A002B7E
:10337000EBD098470028E8D0D8F8004063681B6974
:10338000002B00F06D8101220DF10F0120469847BE
:10339000002880F265812046FFF774FF05B0BDE884
:1033A000F08F082120460193FFF786FF019BCBF8A1
:1033B0000030944B00221A60C7E7BFF35B8F23688D
:1033C000BFF35B8F1A0740F17D81A6F13003092B13
:1033D00017D8BFF35B8F2368BFF35B8F13F0100F19
:1033E0004FF00A0006D0874B1A6800FB0266303E99
:1033F0001E60AAE784490B6800FB0366303E0E603E
:10340000A3E73B2E18D0BFF35B8F55E8003F23F0B6
:10341000080345E80032002AF7D1BFF35B8FBFF302
:103420005B8F55E8003F23F0100345E80032002A87
:10343000F7D1BFF35B8F45E110212846FFF73CFF32
:10344000C306E0D481E7482E39D07E2E40F0458176
:103450006E4C2378002B00F0408101216C48FEF770
:10346000C3F86C4B217818780AF1050A0139C9B202
:1034700050442170FFF732FF2FE16648624A03781B
:1034800011688B42C0F02981604ECCB232781B1B90
:103490002244037060483270FEF7A6F81DE15B48D5
:1034A000594B027819688A42C0F01781CBB2D21A00
:1034B0000270584A1078034413705548ECE7554C95
:1034C0002178002900F009815348FEF78DF84F4A12
:1034D000137821780B44137000232370FDE04B4CCC
:1034E0002178002900F0F9804948FEF77DF8494A23
:1034F000EEE7BFF35B8F54E8006F26F0010344E86A
:103500000032002AF7D1BFF35B8F16F001069DF859
:103510000F500BD05B2D7FF418AF02212046FFF730
:10352000CBFE04212046FFF7C7FE0EE7A5F12003DE
:103530005E2B4DD90D2D2DD015D8092D7FF405AF5B
:10354000364B1B68002B3FF400AF304A1278002A3C
:103550007FF4FBAE2F4C38682178053098472378EC
:1035600018442070F1E61B2D12D07F2D7FF4EDAEB4
:10357000284A1378002B3FF4E8AE013BDBB213700E
:103580003868224A053311781844FFF7A7FEDCE6B5
:103590000121C7E7DFF87CA01C4C9AF800103B68BB
:1035A0002278D9F800000B44134429465E71FFF7D6
:1035B0006EFE0A21D9F80000FFF769FE184B396842
:1035C00018688AF80060267019F015FE3E60BCE6A7
:1035D0000E4A104B92F800B01E780BEB06027E2AC2
:1035E0003FF7B3AE3C68D9F80000721C29461A7048
:1035F000FFF74DFEA319BBF1000F15D15D71A4E6D5
:103600008C0200208402002080020020950200200D
:1036100058ED01009402002052ED010090020020BC
:103620009C020020A002002093F805A031485D71A3
:103630000536FDF7D9FF34440BF1010B661C5C44E1
:10364000B44203D12C48FDF7CFFF7EE65146D9F8AE
:103650000000FFF71CFE337806F801AB9A46EFE74F
:10366000396839B9254B186819F0E9FD3860002828
:103670003FF494AEBFF35B8F214C2368BFF35B8FA5
:1036800013F0020F25463FF434AF9DF80F60D7F8D2
:1036900000A0BFF35B8F55E8003F23F0040245E82C
:1036A00000210029F7D1BFF35B8F59077FF585AE65
:1036B000A6F13003092BDFF84CB07FF672AE012380
:1036C000CBF80030462E3FF40AAF3FF6BCAE432E97
:1036D0003FF4E5AE442E3FF4D0AEBFF35B8F55E828
:1036E000003F23F0020345E80032002AF7D1BFF380
:1036F0005B8F2AE643ED010047ED010088020020C0
:103700009802002080020020174B13B51860174B59
:10371000174C1960174B20681A60FFF7B3FD20683B
:1037200043689B6903B19847206843681BB11B6CD1
:103730000BB11149984720684368DB6A2BB92068B0
:1037400043681B6A73B902B010BD98470028F6D0D1
:10375000206843681B69002BEDD001220DF10701A1
:103760009847E8E79847EEE7880200209C0200208F
:10377000A0020020900200203D3300000148FDF728
:10378000EDBD00BF9532000008B5044819F0D6FB26
:10379000034B1860FFF7F2FF002008BD4BED01005E
:1037A000A002002010B54FF02003EFF3118283F345
:1037B0001188114C237823B982F311886FF04400EB
:1037C00010BD013BDBB2237023B182F311886FF08F
:1037D0000F0010BD094B1878012128B1217082F328
:1037E00011886FF00A0010BD197082F311884FF034
:1037F00080425160187010BDA6020020A502002072
:1038000008B5002210460121FDF758FB0020FDF706
:1038100023FB002008BD0000F8B54FF02002EFF3B5
:10382000118382F31188254A1078441C147060B10A
:1038300083F311884FF08043D3F80C3413F4803FA6
:1038400014BF00206FF04300F8BD1D4D2F782FB13D
:10385000107083F311886FF00A00F8BD01262E70F6
:1038600083F311884FF0804419B33846FDF704FB09
:10387000C4F80071D4F80433C4F804632660D4F8A3
:10388000002192B10022C4F800210E4A13F0010F6A
:103890004FF0010308BFC4F808330020C2F880319C
:1038A000FDF7DAFA00232B70C4E720BF40BF20BF2A
:1038B000E5E7C4F800112660F4E700BFA602002087
:1038C000A502002000E100E0F8B506460C464FF0E6
:1038D0002002EFF3118382F311882C4A157865B129
:1038E00083F311884FF08043D3F8183413F4803FEA
:1038F0000CBF6FF043000020F8BD0127177083F361
:1039000011882846FDF7B8FA4FF080430221C3F82A
:103910000451D3F80423C3F80413C3F818459F6077
:10392000D3F8041171B39207194F58BF02224FF018
:1039300000014FF00105C3F804114FF0000058BF1B
:10394000C3F80823C7F88051FDF786FA4FF080438B
:1039500000211822C3F80823C3F80C11C3F8101172
:1039600014F00301BED11020C3F83805C3F80423B6
:103970003046C3F80453FFF74FFF0028B2D1C7F811
:103980000051AFE720BF40BF20BFC9E7A40200201D
:1039900000E100E0F8B54FF080430546D3F808E1B8
:1039A000D3F80423D3F80C44D3F80071D3F80401FE
:1039B000D3F80C11D3F8106102F00102BEF1000F30
:1039C00003D04FF0000EC3F808E127B14FF0804359
:1039D0000027C3F800713AB1E30341BF4FF08043C1
:1039E0000122C3F808231A6120B14FF0804300225E
:1039F000C3F8042149B14FF080440021C4F80C11F0
:103A00002846FFF7CFFE0123636176B14FF0804374
:103A100000210124C3F810112846C3F80443FFF71E
:103A2000FBFE10B9014BC3F80041F8BD00E100E016
:103A300000688068006841B9D0F8101521FA02F2D8
:103A400002F001021A6000207047D0F81025F9E753
:103A500000688068006849B9012191401BB1C0F835
:103A6000081500207047C0F80C15FAE7C0F80435B7
:103A7000F7E710B583683AB11A680A605A681960A6
:103A800002B95960002010BD18680028FAD08142A0
:103A90000ED15C68086832B9A142186000D1586044
:103AA00000230B60EEE7A142106008BF5A60F7E701
:103AB00002460068E9E700000C4B30B50C4D1C686D
:103AC000002324FA03F2D20708D503F5A27255F8B1
:103AD0002220C2F30422824200D121B10133082BFB
:103AE000EFD16FF01203184630BD00BFB4020020C2
:103AF0000060004070B514460D46C9B90368866879
:103B00009B6810461979FFF7D7FF002812DBB268CF
:103B1000012303FA04F4144300F14001064AB4609F
:103B200003FA00F042F82150C2F80403284670BDA1
:103B30006FF0220070BD00BF0060004070B51446F9
:103B40000D46B1B9036886689B6810461979FFF77E
:103B5000B3FF00280FDBB268012303FA00F003FA79
:103B600004F4054B22EA0404B460C3F808032846B1
:103B700070BD6FF0220070BD006000402DE9F04183
:103B800006681446B268156819B16FF02200BDE8E6
:103B9000F08103F44072B2F5807FC3F30130C3F3C8
:103BA000813C03F4403758D0B2F5007F0CBF0422AB
:103BB0000022B7F5803F08BF002713F0010F4FEA3E
:103BC0008001DFF8CCE004F5E0704FD00C2A46D13C
:103BD0000127A740C5F8087561445EF8211041F03F
:103BE00003010A4345F8202013F0020049D0B268CF
:103BF000990692F80480C8D55A063DD413F0040FF4
:103C000014BF4FF480354FF400351F4E37683846E7
:103C1000FCF718FB082832D041462046FFF74CFF3E
:103C2000002808DAFB4393FAA3F0002BB0FA80F0E7
:103C300008BF4FF0FF300123834024023B4304F4CC
:103C4000F854336000F5A270104B44F001042C438B
:103C500043F820400020BDE8F0810C22A9E7042AA7
:103C600002BF0127A740C5F80C75B5E761445EF8AF
:103C700021100A433A43B5E74FF44035C5E76FF0EA
:103C80000400BDE8F08100BFB402002000600040E5
:103C900090ED010008B5002205210620FDF70EF980
:103CA0000620FDF7D9F8002008BD0000002170B5FE
:103CB0000A460C4601258B0003F1804303F5C043FF
:103CC000D3F8000140B1D3F81005C3F80041C0F3A8
:103CD000042305FA03F31A4301310829EBD1084EF6
:103CE000B3689D681C6815404CB1A3681D4204D0A0
:103CF00063682A462146304698472468F4E770BD39
:103D00006062002003689B681B68D3F8082132B109
:103D10000020C3F80801D3F818350B7070474FF036
:103D2000FF30704703689B681B68C3F81C15D3F805
:103D30001C21002AFBD00022C3F81C210846704732
:103D400003689B681B68D3F8240118B1D3F880047A
:103D5000C3F8800400F00F00704770B503689B68DB
:103D60001C6800231E46D8B2151A002D03DDD4F8B6
:103D70001C51013305B970BDC4F81C61085CC4F85E
:103D80001C05F0E770B503689B681C6800231E469D
:103D9000D8B2151A002D03DDD4F80851013305B946
:103DA00070BDC4F80861D4F818550D54F0E70368E5
:103DB0009B681A68D2F8043343F08003C2F80433D6
:103DC000704703689B681A68D2F8083343F0800391
:103DD000C2F80833704703689B681B68D3F81C015E
:103DE000704703689B681A68D2F8043343F00403F1
:103DF000C2F80433704703689B681A68D2F8083326
:103E000043F00403C2F80833704703689B681B68DB
:103E1000D3F81C01B0FA80F04009704703689B6832
:103E20001B68D3F80801704703689B681A68D2F8CA
:103E3000043343F40073C2F80433704703689B688B
:103E40001A68D2F8083343F40073C2F80833704795
:103E50000120704783685960704783685B6803B1CD
:103E60001847704708B5022000220121FDF726F807
:103E70000220BDE80840FCF7EFBF08B50246FFF797
:103E8000AAFF30B91046FFF7C9FF003018BF012064
:103E900008BD012008BD0000F8B503689B68054611
:103EA0001A481C6819F04AF8436806461F680D2234
:103EB00040F201130021B84773681F6800231946B8
:103EC0000F223046B8470D23C4F80C350F23C4F831
:103ED0001435AB684FF4E1321A602B689B681A689E
:103EE0009B684FF0EB71C2F824150422C4F800253A
:103EF00000260122C4F81C61C4F80861A260226097
:103F0000034A6A60284698473046F8BDF4ED010040
:103F100008EE01002DE9F0418378C4781E1DA3420C
:103F20000A4406441FD8E41AE4B2A1423EBF641A10
:103F3000E7B20C462344A1EB040128BF0027DBB203
:103F4000C9B23444A64209D183704378BB4282BFD0
:103F5000204B01221A600846BDE8F08116F8015B8B
:103F600002F8015DEEE70578ED1AEDB2A9423FBF18
:103F7000671AED19EFB20D4638BF5B18A1EB0501CA
:103F800032BFDBB227460023C9B2964606EB050CCA
:103F9000664519D1521B0029D6D0002CD4D08C42B2
:103FA0008ABF0B462346641A00F10406A1EB030105
:103FB0008CBFE7B20027C9B2F418A642C4D016F8E5
:103FC000015B02F8015DF8E716F8018B0EF8018D30
:103FD000DEE700BF00D0004030B5D0B1C278057830
:103FE0008478531CDBB2AB4208BF0023A34210D03D
:103FF00061B10A490244D1F808151171C370013347
:10400000DBB29D4208BF0023A34205D06FF00F0032
:1040100030BD6FF0360030BD002030BD00D0004014
:1040200070B5846801221146204619F04DFB04F159
:1040300018000122002119F047FB042384F83130D5
:104040000C23002584F83D300521114B84F83010F5
:104050000D2684F8335084F8325084F83C6084F89C
:104060003F5084F83E50D3F8042542F00102C3F8D3
:1040700004250122C3F800513046C3F804231A6016
:104080002A46FCF71BFF3046FCF7E6FE284670BDCB
:1040900000D0004038B5124BD3F80031FBB1856831
:1040A000012105F13C00FFF797FF10F1100F0446C6
:1040B0000DD010F1370414BF0021012105F13000AB
:1040C000FFF78AFF044605F1180019F007FB044BBF
:1040D00000221034C3F800211CBF01225A6038BDF1
:1040E00000D000402DE9F84385680F46144605F1DD
:1040F000180814B92046BDE8F883FF2C234628BFD2
:10410000FF23E41ADEB2A4B205F130094FF0FF310B
:10411000284619F03FFB31463A464846FFF7FAFE7B
:104120000646284619F0DAFA002EE2D04FF0FF31A9
:10413000404619F02FFBE9E7134602480A461946A4
:10414000FFF7E8BEF4020020084BC3F84005D3F89F
:104150000435C01A20F07F40054B0238984282BFD8
:10416000044B4FF40032C3F80021704700100140A7
:10417000FDFF7F0000E100E010B5124B124CD3F8B8
:1041800004052268801A20F07F40B0F5A37F11D982
:104190000E49096840F24713B0FBF3F0884228BF8C
:1041A000084603FB002323F07F432360084B18607D
:1041B00019F032FB2068BDE8104000F24710FFF70D
:1041C000C3BF00BF001001400C0300200803002003
:1041D000E8610020024B0022C3F84021FFF7CCBF6A
:1041E0000010014046F23543984228BF1846054B5F
:1041F0001860054B1B6840F2471202FB0030FFF7C6
:10420000A3BF00BF080300200C03002008B5074B24
:104210000022C3F84021064B4FF40032C3F880213E
:10422000FFF7AAFF034B01221A6008BD00100140EE
:1042300000E100E00803002070B5184818F07EFE89
:1042400048B34368164D1B6801219847154B00245D
:104250001C60154B01261E6040F24713C5F8084547
:10426000C5F840354FF48033C5F84433C5F80433FE
:104270000E4BC5F840414FF40032C3F8802131465F
:1042800022461120FCF71AFE1120FCF7E5FDAE6076
:1042900020462E6070BD4FF0FF3070BD78ED0100FC
:1042A000001001400C0300200803002000E100E0A2
:1042B00030B50B4A0B48D2F80415D0E90045D2F8C6
:1042C000043599420AD1084A40F2471303FB1413FC
:1042D000106823F07F4300FB043030BD1946ECE743
:1042E0000010014070230020EC61002070B54FF0F9
:1042F0002003EFF3118583F31188144C144E2378B7
:1043000003EBC312013303F003033244237085F33C
:104310001188402928BF40210E4D0138134602EB79
:104320004106B34204D1002302F81130104670BD9B
:104330004478240902332C5D03F8024C10F8014F35
:1043400004F00F042C5D03F8014CEAE7470300205A
:1043500048030020A6EE010070B51D4A1D491378E0
:1043600003EB4306013303F00103137003788AB0B3
:1043700006EBC60604460E4407AD032B21D8DFE842
:1043800003F0021A1C1E14492846FCF77FF96278D4
:104390000492A2780392E2780292227901926279E1
:1043A0000092A37905950D4A1B213046FDF72AF9A5
:1043B00030460AB070BD0A49E6E70A49E4E70A490F
:1043C000E2E70A4A0A212846FDF71CF9DFE700BFA9
:1043D00046030020100300205AEE010083EE010086
:1043E00061EE010068EE010072EE01007CEE01005A
:1043F00030B585B00446154668460322FCF7B6F989
:104400000D2200210DF10300FCF7DCF920466A467D
:1044100069460BF015F9044620B90322694628467F
:10442000FCF7A4F9204605B030BD13B50C4601AA2F
:104430000331FFF7DDFF48B9032201A92046FCF74D
:1044400080F9B0FA80F0400902B010BD0020FBE70F
:1044500070B5CD1C06460C46284603210BF0D4F857
:1044600060B9637903F03F0343F040036371224670
:1044700029463046BDE87040FFF7BABF70BD2DE950
:10448000F04180464FF0FF300F4602F06FFD0125EE
:1044900000F10806044605750221304618F0D6FCE6
:1044A0000F23042103704170304618F0CFFC457093
:1044B0000770A0F802802046BDE8F04102F09CBAE7
:1044C00001F12003013813F8012D00F8012F8B4270
:1044D000F9D170478FB55F4EDFF8AC8135464FF0AC
:1044E000FF31404619F056F9BFF35B8F3468BFF3D4
:1044F0005B8F14F0010458D0DFF88091564C574F71
:1045000057484A462146FDF7B2F800283BD1554BA3
:1045100001930093544A554B55495648FDF764F8AA
:104520001F244FF0FF31012002F010FD00F10807B9
:1045300002218146384618F089FC3E23037042234D
:1045400043700121384618F081FC08230370412193
:10455000384618F07BFC074600F8014BE4B14022D6
:104560000021FCF72FF9BFF35B8F55E8003F23F0E4
:10457000010345E80032002AF7D1BFF35B8F4846BC
:1045800001F08EFDABE7202239462046FCF7D9F832
:104590000028B5D00024C4E73149FFF791FF364920
:1045A00007F12100FFF78CFFDDE7BFF35B8F336876
:1045B000BFF35B8F9B0792D530492948FEF71DF862
:1045C000002837DA274B029301900093264A2C4BA0
:1045D00027492C48FDF708F84FF0FF31012002F081
:1045E000B5FC00F1080702218146384618F02EFC80
:1045F0003E230370222343700121384618F026FC25
:10460000092303702121384618F020FC03460130AD
:10461000CCB91F221A7021462022FCF7D3F8BFF331
:104620005B8F55E8003F23F0020345E80032002A83
:10463000A3D0F6E70A4A114BA2F120011046FDF77C
:1046400062F80446C8E700221A700549FFF738FFF0
:10465000E5E700BF140600204C05002090EF0100A4
:104660006C050020B6340200B0EF0100B7EE010087
:10467000B7EF0100BAEF01008C050020E0EE010069
:10468000C5EE0100F3EF0100C462002070B5037DA8
:104690000446ABB983681A8842F225018A4217D0D2
:1046A00042F226018A423DD042F201018A4207D1FC
:1046B000DA7802F07F02DA701A7922F001021A71B8
:1046C000334BD3F8E4302046DB68BDE87040184730
:1046D0000321083018F0F9FB204618F059FBBFF30E
:1046E0005B8F2C4B1A68BFF35B8F910706D50C21AB
:1046F00042F22500FFF7C3FE002070BDBFF35B8FC1
:1047000053E8001F41F0010243E800200028F7D1E0
:10471000BFF35B8F11F00104E9D11F4818F0DEFFF1
:104720002146E5E70321083018F0CFFBBFF35B8F8C
:10473000184B1A68BFF35B8FD20707D50C252046AC
:1047400018F026FB294642F22600D3E7A2893F2A29
:104750001CD9BFF35B8F53E8005F45F0020243E8CA
:1047600000210029F7D1BFF35B8F15F00205E5D1D9
:10477000A6680A483146FFF7A3FE06F12001084863
:10478000FFF79EFE044818F0A9FFD8E71225D6E7E8
:104790001057002014060020C46200206C05002081
:1047A0008C05002008B50AF02FFFB0FA80F0400910
:1047B00008BD00007FB500230A22059304930392ED
:1047C00002930193009340F22C52044B0449054894
:1047D00019F0A9F907B05DF804FB00BFD54400004B
:1047E000C02B0020AC050020F0B40278012A04465A
:1047F0000B4617D003D3022A2CD0F0BC7047184ABE
:104800000D4602F11007106851682E4603C60832A3
:10481000BA423546F7D11278327062885A73120A5A
:104820009A73EAE70E4A0D4602F1100710685168C4
:104830002E4603C60832BA423546F7D11278327096
:1048400062685A73C2F30721120CDA73120A997361
:104850001A74D2E7014611221846F0BCFBF786BF56
:1048600041F0010010B50C46017822788A428AB0E6
:104870000ED06946FFF7B8FF05A92046FFF7B4FF41
:1048800010220DF115010DF10100FBF75AFF0AE0AE
:10489000012A0AD004D3022A0AD06FF0150002E0E0
:1048A00040886388C01A0AB010BD40686368F9E7A1
:1048B0001022611C0130E8E7F0B50578012D8BB0BE
:1048C00004460E4617460FD006D3022D0ED0002107
:1048D0003046FBF777FF05E04388204A39463046EB
:1048E000FCF790FE0BB0F0BD4368F6E72A46411C8A
:1048F00006A8FBF73BFFE11C042208A8FBF736FFE4
:104900002A46E11D0DF11A00FBF730FF2A4604F19B
:10491000090107A8FBF72AFF2A4604F10B010DF154
:104920001E00FBF723FF04F10D01042209A8FBF789
:104930001DFFBDF818300493089B0393BDF81A308F
:104940000293BDF81C300193BDF81E300093044A59
:10495000099B39463046FCF755FEC3E73CF00100A1
:1049600024F0010010B5034C25222146FFF7A4FFD7
:10497000204610BD1806002070B50B4D06460FCD21
:104980008AB06C460FC40FCD0FC495E80300092E02
:1049900084E803009BBF0AAB03EB8606034856F886
:1049A000280C0AB070BD00BFD0E2010090FE0100EB
:1049B00000B5BFF35B8F50E8003F03EA010240E817
:1049C000002EBEF1000FF6D1BFF35B8F18465DF8E5
:1049D00004FB10B501F01F0301249C404B0900EBC0
:1049E0008300E143FFF7E4FF044214BF01200020ED
:1049F00010BD4B09BFF35B8F50F82300BFF35B8FF3
:104A000001F01F01084100F0010070470622FBF78A
:104A1000ADBE0722FBF7AABE00B5BFF35B8F50E81F
:104A2000003F43EA010240E8002EBEF1000FF6D13C
:104A3000BFF35B8F18465DF804FB000013B5837A63
:104A400004461BB90123037202B010BD006FF8B118
:104A500000210830FFF7CDFFD0B1236F9B899B0663
:104A60004CBF042303232372627A237A9A42EBD940
:104A7000084B01930093084A084B09490948FCF781
:104A8000B3FD0521204602B0BDE8104003F0EEB8AA
:104A90000223E8E7B6340200B0EF010042F1010062
:104AA000B7EF010048FE01002DE9F041064686B04F
:104AB0009079264F8846154618F0A6F8874213D0FD
:104AC000AC79204618F0A0F8214B059303908DE8AF
:104AD0004800049702941F4B1F4A20492048FCF7C6
:104AE00083FD06B0BDE8F081284618F093F81D4C10
:104AF00004EBC0004388B34210D0284618F08AF86F
:104B0000134B039304EBC0001449428802928DE8D2
:104B10004800114A0F4B1448FCF766FD284618F070
:104B200079F804EBC0004368002BDAD0284618F06F
:104B300071F804F83080284618F06CF804EBC000D7
:104B4000406806B0BDE8F04118F0C8BD846300209D
:104B5000B6340200A7F1010099FB0100B7EF010094
:104B6000A0FB010040060020E5FB01002DE9F04F0D
:104B7000DFF848A14F4D85B09AF80D304E486FF3DD
:104B800007138AF80D3002F0C9FD00F101094FF05A
:104B9000FF324946494819F053FA48B9484C474E44
:104BA00004F1D40BB9F1000F11D118F0F3FCE3E7D5
:104BB000404B01930093434A434B44494448FCF71C
:104BC00013FD404080F311884FF0040002DF737B37
:104BD0001B09012B52D9042B62D1377B002F51D1F5
:104BE0003946584618F0AAF8804638B9314B019337
:104BF0000093344A374B35493748E0E74FF0FF31EF
:104C0000364818F0C7FDD4F8C0306BB1314B2D4A8F
:104C10002E49019500953248FCF7E6FCD4F8C00017
:104C200018F0B6F8C4F8C070404618F0DFF8C4F8C1
:104C3000C0004046FFF72AFD00B3264B214A234916
:104C40000190029500952748FCF7CEFC234818F008
:104C500045FD404617F0DEFF234B03EBC00000226A
:104C60001F214088FFF720FFD4F8C00018F090F80B
:104C700000234046C4F8C03018F08AF8143609F111
:104C8000FF398FE7012F04D130691C3802F072FC24
:104C9000F4E7022FF2D130692C3803F00DF9EDE77B
:104CA000019302950095114B114A08491148FCF7F0
:104CB0009BFCE3E7B6340200445800203058002043
:104CC00010570020B0EF0100E8F10100B7EF01003C
:104CD00028FC0100D0F1010052FC0100B85700206F
:104CE00077FC0100A2FC010040060020D9F1010080
:104CF00099FB0100D4FC0100C378002B41F28832FB
:104D000000F1740108BF0022014819F075B800BF16
:104D100078230020C0F3072310705370000CC1F3F8
:104D200007231171090C90709171000A090AD07063
:104D30005371D171704700002DE9F04780468946D4
:104D40001348144D4FF0FF3117F0F2FF044600F105
:104D5000080600213046002718F009F8277520467C
:104D600017F058FF05EBC000A0F80280204617F0AE
:104D700051FF05EBC00003214760304618F066F88C
:104D800080F80290A0F800802046BDE8F08700BFC0
:104D9000846300204006002030B5044685B00D46EF
:104DA00019B9FFF7C9FF0546F0B140F635439C42FB
:104DB00014D12846FFF76AFC044660B10C4B0293FD
:104DC0008DE818000B4A0C4B0C490D48FCF70CFC05
:104DD000284617F0DDFF204605B030BD29460948BA
:104DE00017F0C9FF0024F6E76FF03604F3E700BFC1
:104DF000B6340200B0EF010052F00100B7EF01003D
:104E0000A2FC0100E457002038B50721044642F215
:104E10003200FFF791FF054698B10721083018F0DE
:104E200015F823880380002402238470C370037163
:104E300044718471294642F23200FFF7ADFF2046EB
:104E400038BD6FF0360038BD70B506460D4642F2EB
:104E500021000321FFF770FF044660B103210830F1
:104E600017F0F4FF85700680214642F22100BDE86C
:104E70007040FFF791BF6FF0360070BD70B51546FA
:104E800086B00C4619B9FFF757FF044668B30122F4
:104E90000021684618F018FC204617F0BBFE144E9F
:104EA00006EBC000C0F804D0204617F09FFF214653
:104EB000104817F060FF42F21071684618F06AFC63
:104EC000204617F0A7FE16F8300030B1204617F044
:104ED0005FFF6FF0040006B070BD0DB12C60FAE703
:104EE000204617F055FF2846F5E76FF03600F2E749
:104EF00040060020E457002038B50121054642F263
:104F00000A00FFF719FF0446D8B108308DB101211E
:104F100017F0ABFF2146002242F20A00FFF7AEFF76
:104F2000044620B93DB120210748FFF775FD204612
:104F300038BD2946ECE76FF020010348FFF738FD44
:104F4000F5E76FF03604F2E78057002070B5144D96
:104F5000062205F108010646FBF7F3FB0446D0B133
:104F6000062142F20500FFF7E7FE0446A8B106223B
:104F70003146083017F070FF2146002242F205004A
:104F8000FFF77CFF044630B9314605F10800FFF712
:104F90003DFD0123EB71204670BD6FF03604FAE74A
:104FA0001057002013B50B210E48FFF722FDB8B9AA
:104FB00069460D48FFF74CFA044648B96846FFF7C2
:104FC000C5FF044620B94FF400610648FFF724FDF1
:104FD000064A0749074818F00FFF204602B010BDE7
:104FE0000024FAE780570020F8570020A0BB0D00EE
:104FF000085800207823002008B56FF400610D48A0
:10500000FFF7D6FC05210B48FFF7F3FC38B1002071
:10501000FFF772FFFFF7C6FF0120FFF76DFF0921C1
:105020000448FFF7E6FC18B1BDE80840FFF7BABF37
:1050300008BD00BF80570020F8B507460E4642F273
:1050400027002721FFF778FE0446D0B1272108303A
:1050500017F0FCFE39460546FFF7DBFC314610220F
:10506000E81DFBF783FB1022074905F11700FBF74A
:105070007DFB2146002242F22700BDE8F840FFF701
:10508000FDBE6FF03600F8BDF857002000F130018A
:10509000FFF7D2BF38B50121054642F22D00FFF7D8
:1050A0004BFE044658B12946083017F0DEFE214673
:1050B000002242F22D00BDE83840FFF7DFBE6FF05E
:1050C000360038BD38B50221054642F20C00FFF724
:1050D00033FE044628B30221083017F0B7FE012D35
:1050E000024615D10A211048FFF783FC5070157055
:1050F0002146002242F20C00FFF7C0FE044628B908
:10510000012D08D180210848FFF786FC204638BDD4
:1051100000234370EBE76FF080010348FFF748FC82
:10512000F4E76FF03604F1E78057002073B51446BA
:1051300005460E46072200216846FBF743FB002385
:10514000ADF803408DF80050ADF801608DF80630E1
:10515000FFF728FF044628BB184B93F878305B060E
:105160004CBF03230123072142F20B008DF80530C9
:10517000FFF7E2FD0446F0B107226946083017F058
:105180006BFE214642F20B00FFF706FE0120FFF7FF
:1051900099FF044630B9012D07D14FF4007108483A
:1051A000FFF73AFC204602B070BD6FF4007104486E
:1051B000FFF7FEFBF6E76FF03604F3E71057002029
:1051C000805700202DE9F8430C46202107469046E1
:1051D000FFF7B2FD064600283CD02021083017F02A
:1051E00035FE202200210546FBF7ECFA4FF00009BE
:1051F000C14506D1314638460022BDE8F843FFF7E5
:105200003DBE62782B78D11802311F2904F10804C1
:1052100006DD304617F0BCFD6FF01500BDE8F883E1
:10522000E918501C4870981CC0B20133287055FA18
:1052300083F314F8081C5970013054F8041C2844F6
:10524000FBF794FA2B7814F8072C13442B7009F110
:105250000109CDE76FF03600BDE8F883F7B50746E2
:1052600001AA002142F22F00FFF708FED8B90198E9
:105270008368B3F80160B3F8035017F089FD062185
:1052800042F22200FFF758FD044670B106210830B3
:1052900017F0DCFD3B88038046808580214642F282
:1052A0002200FFF779FD03B0F0BD6FF03600FAE79A
:1052B000028843889A4210B518D8052A16D9B3F542
:1052C000486F13D88488B4F5FA7F0FD2C188A1F152
:1052D0000A0292B240F67640824207D804FB0333BA
:1052E000B3EB810FB4BF0120002010BD002010BD22
:1052F0002DE9FF41664D95F8A43006462C461BB1BA
:1053000095F8A5209A4209D994F8A530013384F87C
:10531000A5300025284604B0BDE8F0810221002018
:1053200002F0A6FB804680B14FF4805105F1700079
:10533000FFF772FB042106F10800FFF76DFB404602
:1053400002F0BFFB6FF00A05E4E7052105F17000EC
:10535000FFF74FFB074610B14046FFF7CDFD072191
:105360004C48FFF746FB804610B10020FFF7AAFE2D
:1053700094F8A530E3B10020FFF78CFE0546B8B1E4
:10538000454B01930093454A454B46494648FCF737
:105390002BF90120FFF77EFEB8F1000F02D00120AB
:1053A000FFF790FE002FB5D00120FFF7A5FDB1E774
:1053B00094F8A52094F8A4309A421DD1364E384B6B
:1053C000364A3849019600963848FCF70DF9002214
:1053D000114642F22900FFF751FD054630B1019612
:1053E00000962F4B324A2F493248D0E794F8A53027
:1053F000013384F8A530CCE706F130013046FFF7E1
:105400001BFE054638B1244B01930093284A244BD8
:1054100024492948BBE794F8A530013384F8A53026
:1054200094F845305B0707D41B4B019300931B4A4C
:10543000224B1C492248AAE7314602A8FFF7E9FAA5
:105440000123082142F24E008DF80F30FFF774FC63
:105450000446C8B108220DEB0201104417F0FCFC11
:1054600021462A4642F24E00FFF708FD0446002876
:105470008FD0094B019300930D4A094B09491148FC
:10548000FCF7B2F8254684E76FF03604F1E700BF79
:105490001057002080570020B634020099FB01000D
:1054A0002EF10100B7EF0100BDF20100F2F20100A0
:1054B000B0EF010033F3010063F301001AF10100C2
:1054C00093F30100CDF301002DE9F0434D4C94F826
:1054D000A43085B00646254623B194F8A5200133B3
:1054E0009A4209DD95F8A530013B85F8A5300024E6
:1054F000204605B0BDE8F0830221002002F0B8FA92
:10550000804678B14FF4805104F17000FFF784FABF
:1055100008217018FFF780FA404602F0D2FA6FF0C7
:105520000A04E5E7052104F17000FFF762FA074677
:1055300010B14046FFF7E0FC07213348FFF759FA66
:10554000804610B10020FFF7BDFD0020FFF7A2FD4F
:105550000446D8B12D4B02938DE818002C4A2D4BF0
:105560002D492E48FCF740F895F8A53013B10120DD
:10557000FFF790FDB8F1000F02D00120FFF7A2FD68
:10558000002FB5D00120FFF7B7FCB1E795F8A530A3
:1055900095F8A4209A420BD2013B85F8A530B38937
:1055A0001F4923F00203B381022008F05BFFDBE711
:1055B000072142F22800FFF7BFFB8146F0B1072127
:1055C000083017F043FC3146FFF723FA22464946DC
:1055D00042F22800FFF752FC044648B10B4B0193FE
:1055E00000930B4A0B4B0C490E48FBF7FDFFBBE742
:1055F00095F8A530013B85F8A530B5E76FF0360486
:10560000B2E700BF1057002080570020B6340200D8
:10561000B0EF010038F10100B7EF0100F8F301002D
:105620008D50000035F4010038B500F1080504463E
:1056300002212846FFF7CDF920B12046BDE83840C9
:10564000FFF756BE03212846FFF7C3F920B12046D5
:10565000BDE83840FFF738BF38BD000038B5082135
:1056600005461648FFF7C5F9024608B1002038BDC7
:1056700007211248FFF7BDF9D0B90121002002F03F
:10568000F7F904460028F1D04FF480610B48FFF78A
:10569000C3F9204602F015FA002D15BF3022122260
:1056A00060214FF400610020BDE83840FFF73EBDA7
:1056B0001046FFF707FD0028DFD038BD80570020D7
:1056C000F0B5B0F8016089B005460C216948B7B261
:1056D000FFF77FF918B16849022008F0C3FE2B7864
:1056E0007BB10221002002F0C3F9044638B12B78C7
:1056F000C372002102F094F8204602F0E2F909B0EA
:10570000F0BD2C1D214606A8FFF783F99DF818303F
:10571000023BDBB2012B28D805F111010DF111007C
:105720008DF81830FFF772F901238DF8103002213F
:1057300006A802F09DF9EB78012B044609D16FF021
:1057400020014C48FFF734F9A4B906A802F02EF85E
:1057500004467CB9494B02938DE88800484A494B7E
:1057600049494A48FBF740FFC9E7214604A8FFF72B
:1057700050F9DCE7204606A920F8486BFFF749F905
:105780002A7EEB7D43EA0223A4F85E30AA7E6B7E7C
:1057900043EA0223A4F86430EB7E2A7F43EA022323
:1057A000A4F86630EE78E670012E1FD104A904F14A
:1057B0004F00FFF72EF905F10B0104F15700FFF739
:1057C00025F9334A84F85660062102F17000FFF78C
:1057D00010F958B1D2E92023002203F0400313430B
:1057E00004D0FFF7DFFB3046FFF786FB032120469E
:1057F00002F016F8237B032B18D1EB7823B1244B4E
:1058000093F87830190718D5022142F21600FFF7F5
:1058100093FA054688B10221083017F017FB238858
:105820000380294642F21600FFF7B6FA204602F03E
:1058300048F90020FFF712FF61E7154D95F8792030
:10584000D20708D52046FFF7DFFA20B98021201DB6
:10585000FFF7E2F8EAE795F878309B0606D5204690
:10586000FFF7FCFC10B94FF48071F0E72046FFF71A
:1058700043FADBE78057002029560000B6340200C7
:10588000B0EF010099F00100B7EF010005FD010044
:1058900010570020012310B50621044600F8013BF3
:1058A00009F0B2FE18B9A37963F03F03A37110BDEC
:1058B0002DE9F0418EB00CAA002140F60340FFF71D
:1058C000DDFA0446002840F085800C9B9B681B781D
:1058D0006BB9424A1360424BBFF35B8F012253E81E
:1058E000001F43E800200028F9D1BFF35B8F0C981C
:1058F00017F04EFA0CAA002141F20300FFF7BEFA9E
:105900000446002866D10C9B364D99680822013167
:1059100005F11600FAF72AFF0C9817F039FA21461C
:105920000CAA41F20100FFF7A9FA2E46044600280E
:1059300050D10C9883685A78AA73D9789A7842EA39
:1059400001222A821A79EA73197ADA7942EA012263
:105950006A825A799B7942EA0323AB8217F018FADC
:1059600021460CAA41F20900FFF788FA04460028F4
:1059700030D10C9B9968681C0131FFF747F80C98EF
:105980002C7017F005FA21460CAA41F20200FFF72D
:1059900075FA0446F0B90C9B99684022013105F173
:1059A0001E00FAF7E3FE95F840300C9843F006032A
:1059B00085F8403017F0ECF9AB7E59061ED40A4B3F
:1059C00001930093094A0A4B0A490B48FBF70CFE66
:1059D0006FF0120420460EB0BDE8F0819C06002056
:1059E0008057002010570020B6340200B0EF0100AD
:1059F000F6F10100B7EF01006AF4010021460CAA9C
:105A000042F20300FFF73AFA04460028E2D10C9B69
:105A100099680822013105F17800FAF7A7FE0C9881
:105A200017F0B6F921460CAA42F20200FFF726FA57
:105A300004460028CED10C9B9B68B3F80120A5F842
:105A4000882042B1DA78022A28BF0222114605F1E5
:105A50008C0017F039FE0C9817F09AF9B47E14F008
:105A6000200400F0D68096F83A301A0713D50CAA15
:105A7000002142F21C00FFF701FA04460028A9D1D8
:105A80000C98836853F8012F5B68C6F88430C6F819
:105A9000802017F07DF996F878309B0600F1D580CC
:105AA00096F878305F0600F1FC80082142F2010090
:105AB000FFF742F90746002800F0B28008210844A9
:105AC00017F0C4F996F878305D0602464CBF40F2F4
:105AD000022003209C0796F879404CBF40F02C0030
