:1000000008250020110F0000610F0000A90D00005D
:10001000A90D0000A90D0000A90D0000A90D000008
:10002000A90D0000A90D0000A90D00009D09000008
:10003000A90D0000A90D000059090000A90D00003C
:10004000D50E00006F9D0000D50E0000D50E0000FB
:10005000D50E0000D50E0000D50E0000D50E000014
:10006000D50E0000D50E0000D50E0000D50E000004
:10007000D50E0000D50E0000D50E0000D50E0000F4
:10008000D50E0000D50E0000D50E0000D50E0000E4
:10009000D50E0000D50E0000D50E0000D50E0000D4
:1000A000D50E0000D50E0000D50E0000D50E0000C4
:1000B000D50E0000D50E0000D50E0000D50E0000B4
:1000C000D50E0000D50E0000D50E0000D50E0000A4
:1000D000D50E0000D50E0000D50E00000000000077
:1000E0000517000000000000210D000000000000C6
:1000F000210D000000000000210D000000000000A4
:10010000210D000000000000210D00000000000093
:100110001D1A000000000000210D0000000000007A
:10012000210D000000000000210D00000000000073
:10013000210D000000000000359D000000000000BF
:10014000210D00003C350020C11C00000000000013
:10015000210D000000000000210D00000000000043
:10016000210D000000000000011E00000000000042
:10017000210D000000000000210D00000000000023
:10018000210D000000000000210D00000000000013
:10019000210D000000000000210D00000000000003
:1001A000699D000000000000210D0000000000001B
:1001B000210D000000000000210D000000000000E3
:1001C000210D000000000000210D000000000000D3
:1001D000210D000000000000210D000000000000C3
:1001E000210D000000000000210D000000000000B3
:1001F000210D000000000000210D000000000000A3
:10020000210D000000000000210D00000000000092
:10021000210D000053B94AB9002908BF00281CBFAE
:100220004FF0FF314FF0FF3000F08EB9ADF1080C08
:100230006DE904CE00F01AF8DDF804E0DDE90223F0
:1002400004B07047430803F05533C01A830803F025
:10025000333300F03330184400EB101000F00F304F
:1002600000EB002000EB0040000E70472DE9F04746
:100270008C460D460446089E002B51D18A421746F3
:100280006DD9B2FA82FEBEF1000F0BD0CEF1200C78
:1002900001FA0EF520FA0CFC02FA0EF74CEA050CF6
:1002A00000FA0EF44FEA174A250CBCFBFAF81FFAC5
:1002B00087F90AFB18CC45EA0C4508FB09F3AB4269
:1002C0000AD9ED1908F1FF3280F02381AB4240F2E8
:1002D0002081A8F102083D44ED1AA4B2B5FBFAF062
:1002E0000AFB105544EA054400FB09F9A14509D968
:1002F000E41900F1FF3380F00A81A14540F2078143
:1003000002383C44A4EB090440EA08400021002ED6
:1003100061D024FA0EF4002334607360BDE8F087E6
:100320008B4207D9002E54D0002186E821000846D0
:10033000BDE8F087B3FA83F1002940F08E80AB422C
:1003400002D3824200F2FA80841A65EB0305012091
:10035000AC46002E3FD086E81010BDE8F08712B9F9
:100360000127B7FBF2F7B7FA87FEBEF1000F34D1D1
:10037000EB1B3A0C1FFA87FC0121B3FBF2F8250CAA
:1003800002FB183345EA03450CFB08F3AB4207D9DF
:10039000ED1908F1FF3002D2AB4200F2D180804665
:1003A000ED1AA3B2B5FBF2F002FB105543EA054487
:1003B0000CFB00FCA44507D9E41900F1FF3302D27D
:1003C000A44500F2B8801846A4EB0C0440EA0840AB
:1003D0009DE731463046BDE8F087CEF1200405FAAE
:1003E0000EF307FA0EF720FA04F83A0C25FA04F493
:1003F00048EA0308B4FBF2F14FEA184502FB114446
:100400001FFA87FC45EA044501FB0CF3AB4200FAF6
:100410000EF409D9ED1901F1FF3080F08A80AB426A
:1004200040F2878002393D44EB1A1FFA88F5B3FB8E
:10043000F2F002FB103345EA034500FB0CF3AB423C
:1004400007D9ED1900F1FF386FD2AB426DD90238F0
:100450003D44EB1A40EA01418FE7C1F1200722FA3F
:1004600007F88B4005FA01F448EA030320FA07FE77
:100470004FEA134CFD404EEA040EB5FBFCF94FEA7F
:100480001E440CFB19551FFA83F844EA054509FB85
:1004900008F4AC4202FA01F200FA01FA08D9ED18A8
:1004A00009F1FF3043D2AC4241D9A9F102091D4400
:1004B0002D1B1FFA8EFEB5FBFCF00CFB10554EEA0F
:1004C000054400FB08F8A04507D9E41800F1FF3502
:1004D00029D2A04527D902381C4440EA0940A4EBA0
:1004E0000804A0FB02894C45C6464D4615D312D0E0
:1004F00056B1BAEB0E0364EB050404FA07F7CB40E0
:100500001F43CC40376074600021BDE8F087184677
:10051000F8E69046E0E6C245EAD2B8EB020E69EB97
:1005200003050138E4E72846D7E7404691E78146CE
:10053000BEE7014678E702383C4445E7084608E74D
:10054000A8F102083D442BE7704700BF013903467C
:1005500011F8012F0AB91A70704703F8012BF7E759
:100560000138013910F8013F11F8012F934202D1EF
:10057000002BF7D11A46981A704770B582B1013A2C
:100580000C46034603D11A782078101A70BD1E78E5
:100590002578AE4200F1010001F10101EFD0F2E750
:1005A000104670BD81EA000313F0030F70B50346D7
:1005B0000BD0013B0A4491421BD170BD002AFCD0F4
:1005C00011F8014B03F8014B013A9C07F6D11E1FAD
:1005D0000D46541B0C44032C06D822F0030421447E
:1005E000234402F00302E4E755F8044B46F8044FB5
:1005F000EFE711F8014B03F8014FDCE770B5C9B222
:1006000003469C0711D141EA012444EA04441E46F2
:10061000951B1D44032D0ED822F00304234402F041
:1006200003021A44934209D170BD002AFCD003F89A
:10063000011B013AE5E746F8044BE9E703F8011B23
:10064000F0E70000F0B50446ABB00E4617460021B7
:1006500080220AA8FFF7D2FF237807AD032B29D801
:10066000DFE803F00222242615492846FFF76EFF33
:1006700062780492A2780392E2780292227901923F
:100680006279A379009205950E4A80210AA800F0AC
:10069000D3FE3B4632460AA90B4800F0BFFE0B4B87
:1006A00001221A602BB0F0BD0949DEE70949DCE7F9
:1006B0000949DAE7094A0A21284600F0BDFED7E7D2
:1006C00008C5000031C5000054C50000000000202E
:1006D0000FC5000016C5000020C500002AC5000097
:1006E00013B5194B186800909B881848ADF8043072
:1006F00000F094FE002002F0BFFB20B1144800F08F
:100700008DFE02B010BD134800F088FE124800F0C4
:1007100085FE1249684602F025FC08B11048EEE754
:100720001048114C00F07AFE104800F077FE236864
:1007300023B10F4800F072FE0E48E0E74FF4FA7064
:100740000BF008F9F3E700BFC4C3000015C40000B4
:1007500032C4000049C4000060C400004506000027
:1007600082C400009EC4000000000020BAC4000043
:10077000D5C40000EAC400000C4B1B78062B12D134
:100780000B4B186810F00F000DD104331B6803F0F9
:10079000F003302B08D1074B1B6813F0F00F0CBF90
:1007A0000120002070470020704700BFE00F00F0DC
:1007B000E40F00F0EC0F00F008B54FF02003EFF36A
:1007C000118183F31188FFF7D7FF20B13B4AD3682B
:1007D00023F08073D360FFF7CFFF10B1384B0322B3
:1007E0001A60FFF7C9FF30B14FF080430022C3F811
:1007F0000C21C3F81021334B1B78062B17D1324B39
:100800001B68180713D1314B1B6803F0F002302A24
:1008100003D003F0E003402B09D14FF08043D3F81D
:100820000024D20703D56FF00102C3F800244FF073
:100830001023D3F80022002A03DBD3F80032002B68
:100840002FDA234B0122C3F80425D3F80024002A11
:10085000FBD04FF010221521C2F80012D3F800246B
:10086000002AFBD04FF010231522C3F80422184BA6
:100870001A46D3F800140029FBD00021C3F8041550
:10088000D2F80034002BFBD0BFF34F8F1149124B2D
:10089000CA6802F4E0621343CB60BFF34F8F00BF1E
:1008A000FDE70C4B4FF0FF329A62DA620B4B0C4AB9
:1008B0001A6081F31188002008BD00BFF0ED00E050
:1008C000A0050040E00F00F0E40F00F0E80F00F09A
:1008D00000E0014000ED00E00400FA058C32002049
:1008E0000090D003084881684A897F2A0BD8C069E4
:1008F000884208D000B50BF07FF85DF804EB03499F
:100900004FF080520A607047BC10002004ED00E0F8
:10091000044800232021C2180133272B82F800133A
:10092000F9D1704700E100E0084A09499368096875
:100930005966084918664B6843F080534B600023A2
:1009400083F311889368586E704700BFBC10002075
:10095000DCE6000000ED00E00E498A682820104423
:10096000EFF3098C80E8F01F0B4F4FF0006620205A
:1009700080F31188CA698A603E60106E0023136696
:1009800080F3118802F1280090E8F01F8CF30988A9
:1009900070470000BC10002004ED00E01EF0040FC2
:1009A0000CBFEFF30880EFF30980816931F8021C76
:1009B00011F0FF0101D0022907D0404080F31188D7
:1009C00004494FF080520A60704700B500F02CFADD
:1009D00000BD000004ED00E010B504460AF0E2FF9F
:1009E00022680146BDE81040014800F017BD00BF75
:1009F000DBC6000010B504461A4800F00FFD04F1F4
:100A00001800194CFFF7E8FFA36A9A0102D51748AE
:100A100000F004FDA36ADB0102D5154800F0FEFCDE
:100A2000A36A180302D5134800F0F8FC0E4CA36A21
:100A3000590302D5104800F0F1FCA36A9A0302D5CD
:100A40000E4800F0EBFCA36ADB0302D50C4800F073
:100A5000E5FC054A936A6FEA03436FEA1343936226
:100A600010BD00BFDCC7000000ED00E0F5C70000CE
:100A700009C8000024C8000043C8000069C800007D
:100A800084C8000038B5044619480D4600F0C6FC7D
:100A900004F11800174CFFF79FFFA36AD90604D58D
:100AA0001548BDE8384000F0B9BCA36A1A0701D563
:100AB0001248F6E7A36A9B070FD5114800F0AEFC79
:100AC000616BA36A180612D50E4800F0A7FC75B139
:100AD000A36A23F08003A36238BDA36ADA0701D5B5
:100AE0000948DEE7A36A9B0601D50848D9E738BD67
:100AF00025C7000000ED00E03CC700004EC7000025
:100B000062C700007BC700008CC70000ACC70000B4
:100B100038B504461D480D4600F080FC04F118006D
:100B20001B4CFFF759FFA36AD80404D51948BDE848
:100B3000384000F073BCA36A190501D51648F6E7E2
:100B4000A36A9A0514D5154800F068FCA16BA36A46
:100B50001B0407D5124800F061FC1DB1A36A23F401
:100B60000043A3620A4B9B6A58050ED50D48DEE789
:100B7000A36A5905FAD4A36ADA0501D50A48D6E76B
:100B8000A36A9B0401D50948D1E738BDA2C500007E
:100B900000ED00E03CC700004EC70000B9C50000F2
:100BA0007BC70000D3C50000EFC50000ACC7000044
:100BB00038B5274D6B68C3F30803DA1E0446092ACB
:100BC0003AD8DFE802F00533352F3939393939376A
:100BD000204800F023FCEB6A9A0703D51E4800F07A
:100BE0001DFC0CE0EB6A5B0009D51C4800F016FC0C
:100BF0001B4B1B784BB101212046FFF743FF2146D9
:100C00000020BDE8384000F013B9164B1B7823B123
:100C100001212046FFF77CFFF1E7134B1B889BB2B5
:100C2000002BECD02046FFF7E5FEE8E70021E3E7E4
:100C30000021EEE70D48D2E70D480E49A3F110025E
:100C40000F2BD8BF01460C4800F0E8FBD7E700BFE8
:100C500000ED00E036C600004EC6000070C6000081
:100C600028ED00E029ED00E02AED00E090C600004C
:100C700008C600001DC60000C7C60000024A53692E
:100C800043F010035361704700ED00E043B2002BC6
:100C900008DB012200F01F0002FA00F05B09024AA3
:100CA00042F82300704700BF00E100E043B2002B90
:100CB0000DDB01225B0900F01F0002FA00F0203377
:100CC000034A42F82300BFF34F8FBFF36F8F704783
:100CD00000E100E04209054B00F01F0053F822201C
:100CE000012303FA00F01040704700BF00E100E06C
:100CF00043B2002BA8BF03F1604301F101014FEAA9
:100D00004111ADBF03F5614300F00F00034BC9B2C1
:100D1000B6BFC9B283F800131954704714ED00E050
:100D200000F042B808B572B6044B986918B10022B9
:100D30009A610AF0F1FA62B608BD00BFBC1000204B
:100D4000F8B50C4616461F4604220A9B099905462B
:100D50000BF020F9A6F1200121440C4AAC6521F0EA
:100D60000701002322F00102EB642B65EE658A6126
:100D7000069A4A60079A8A60089ACA600F604FF024
:100D80008072CA61A9642B66F8BD00BF2DBE000049
:100D9000014910220A60704710ED00E0404080F3E6
:100DA000118830BF704700BF404080F31188DFF8E2
:100DB0001CC0DCF800C01CF4006C0CBFEFF3088012
:100DC000EFF3098000B5FFF7F3FE00BD04ED00E08E
:100DD000042838B504460D4613D0052813D003283F
:100DE00013D10C4800F01AFB0AF0DCFDAA69014699
:100DF000094800F013FB29462046BDE8384000F0C2
:100E000017B80648EEE70648ECE70146054800F04B
:100E100005FBE9E7B0C800002EC90000D6C80000F5
:100E2000F0C800000BC9000001460068FFF7D0BF02
:100E3000052810B50CD00AF0E1FF60B10AF0DEFF22
:100E40000C4B0D49002808BF19460C4800F0E6FA83
:100E5000FFF7A4FFFCE70AF0E1FF0028EED1084C01
:100E60000848A16800F0DAFAA068BDE8104000F078
:100E70000BB800BF6EC900006AC900007FC900003E
:100E8000BC1000209FC9000038B505464FF0200374
:100E9000EFF3118483F311880BF00BF80B4B9B6875
:100EA0009D420DD10A4B5A68C2F3080222B90AF0DA
:100EB000A3FD2046FFF738FD5A6842F080525A6081
:100EC0002046BDE838400AF0D3BC00BFBC1000206B
:100ED00000ED00E000B572B60B4A906900281EBF15
:100EE000002191610AF018FA62B6EFF30580A0F1D3
:100EF00010004FEAC0000549014409C998475DF850
:100F000004EBFFF7EFBC0000BC100020DC00000089
:100F1000202080F3118805484FF40061401880F3C9
:100F20000988022080F3148800F006B848260020C3
:100F300030BFFFF7FDBF00BF08B5074B074A23F0DE
:100F40007F039360BFF34F8FBFF36F8F0AF01EFADA
:100F50000AF026FA0AF04CFA0000000000ED00E06A
:100F600008B5FFF7E5FFBDE80840FFF7BBBC000090
:100F7000154B16491A6830B50D68C2F30722954221
:100F80000FD8002248685A60954200F10C000AD13F
:100F900005225A600E4B01221A70BFF34F8FBFF328
:100FA0006F8F002030BD50F80C1C50F8044C9A6034
:100FB00021F01F0141F01001114344F00104D960F8
:100FC00001321C61E0E700BF90ED00E048320020F4
:100FD0000400002010B5C47AC0688C424FF00C04A5
:100FE000B6BF614304FB01014158202492FBF4F495
:100FF00001EB8401196002F01F0010BD07B501ABC1
:10100000FFF7E8FF019A012303FA00F01368034396
:10101000136003B05DF804FB2DE9F04743680589D0
:1010200004460068A77A5D43284400214FF00C0E67
:101030004FF0200CB94205DB002523899D4223DBBC
:10104000BDE8F087D4F80C90B5FBF3F20EFB01F885
:101050001F2A09EB08064FEA930306F1040AC8BFEA
:101060001F3203F10303C6F804A0C6F808A0CABFE4
:1010700092FBFCF2E17249F8080023F00303C8BFB9
:1010800000EB82000131D5E76268E36820686A43BB
:101090001E1D865081189A684A609A682046116021
:1010A00099602A460021FFF7A9FF0135C5E7002016
:1010B000704700000B6801330B60014B1B68184739
:1010C000903200202DE9F04F85B09B460E9CDFF852
:1010D00090A0012CB8BF0124012B0CBF302320238A
:1010E0001546804689460194029301260A2700226C
:1010F0000AF101040AB9AA451FD2B5FBF4F049462A
:101100003030C04701360122013F012FB5FBF4F119
:101110004FF00A0304FB1155BAFBF3FAE8D1494634
:1011200005F13000C047BBF1030F03D1019B9C1BAD
:10113000002C0FDC05B0BDE8F08F019BBB42E3DB68
:10114000BBF1020FE0D84946029803920136C0472E
:10115000039AD9E749462020C047013CE8E700BF91
:10116000FFC99A3B0A688B6830B512B14C68A3423C
:1011700002DB01338B6030BD651EAB420BBF8C6060
:101180005C1C00218C600CBFD154D05430BD0000D9
:10119000014B1860704700BF903200202DE9F04FDE
:1011A00089B04FF0000A06460F4604921C464FF0E5
:1011B000FF39D0465546049B187810B909B0BDE8F0
:1011C000F08F45B9252800F00C813946B047049BC3
:1011D00001330493EFE7642861D019D839280AD87D
:1011E000312850D22D283CD030283DD0252808D198
:1011F0003946B0476FE0582800F08980632800F036
:10120000EA8039462520B047049B39461878F0E734
:10121000702872D006D8692841D06C283CD0682844
:10122000D5D0EEE7752858D017D87328E9D12368B0
:1012300004F1040B1C46254615F8010B002840F06C
:10124000BF80B8F1030F40F0D580E41AA9EB040485
:10125000002C00F3BB805C463DE0782857D07A280C
:10126000DEE74FF00308B2E7B9F1000F0EDAB8F18C
:10127000000F00F0BC80A0F13009B8F1000F08BFEA
:101280004FF00208A3E7B9F1000FF4DB0A2303FBD8
:101290000909A9F13009F0E70AF1010A97E7BAF163
:1012A000010FC5BF073424F0070325681D68D4BFAC
:1012B000043403F10804002D05DA39462D20B04727
:1012C0006D4209F1FF39CDF8009043462A46394670
:1012D0003046FFF7F7FE002579E7BAF1010FC5BFE9
:1012E000073424F0070322681A68CDF80090CCBFB9
:1012F00003F1080404344346E9E739463020B04797
:1013000039467820B0474FF008094FF00108BAF18C
:10131000010FC7BF073424F0070323680593C2BF3A
:1013200003F108041B6805934FF008024FF0000317
:10133000D8BF04340393079393460BF1FF3B059BFF
:101340004FEA8B0023FA00F010F00F0009D1079B41
:1013500013B9BBF1000F22D14FF0300E07E0069A0F
:10136000EBE709288CBF4FF0570E4FF0300E39468F
:1013700070440692B047039B079501330393BBF17A
:10138000000FECD1B8F1030FA5D1039BC3EB4905C6
:10139000002DA0DD39462020B047013DF8E7531E5F
:1013A00091450693EBDBB8F1010F03D139463020AC
:1013B000B047E4E7B8F1020FE1D139462020F7E762
:1013C000394603932C46B047039B34E73946202027
:1013D000B047013C3CE72068251D3946B0472C4604
:1013E00079E7AA46A8464FF0FF390125EFE64FF00E
:1013F0000108ECE65C460546E9E6000013B502ACE0
:10140000002344F8043D02460B4603482146FFF7FB
:10141000C5FE019802B010BDB51000000FB407B5AD
:1014200004A951F8040B0191FFF7E8FF03B05DF840
:1014300004EB04B0704700000CB430B585B008ABC5
:10144000044653F8042B01900291002501A9074896
:1014500000930395FFF7A2FE0398029B9842B8BF42
:10146000255405B0BDE8304002B07047651100005A
:101470007047000013B5114CBFF35B8F2068BFF3BA
:101480005B8F60B90E4809F021FFBFF35B8F54E812
:10149000003F44E80002002AF9D1BFF35B8F4368A4
:1014A00004221B680DEB02019847002802DA00F0C5
:1014B00015FD0190019802B010BD00BF080000208A
:1014C000C4C900000A2838B50446074D04D128686D
:1014D00043680D215B68984728684368E1B25B6800
:1014E0009847204638BD00BF0C0000200148FFF798
:1014F0004FBE00BFC514000008B5044809F0E6FE61
:10150000034B1860FFF7F2FF002008BDCEC90000B2
:101510000C00002010B54FF02003EFF3118283F38D
:101520001188114C237823B982F311886FF044009D
:1015300010BD013BDBB2237023B182F311886FF041
:101540000F0010BD094B1878012128B1217082F3DA
:1015500011886FF00A0010BD197082F311884FF0E6
:1015600080425160187010BD120000201100002050
:1015700008B5002210460121FFF7BAFB0020FFF753
:1015800085FB002008BD0000F8B54FF02002EFF306
:10159000118382F31188254A1078441C147060B1BD
:1015A00083F311884FF08043D3F80C3413F4803F59
:1015B00014BF00206FF04300F8BD1D4D2F782FB1F0
:1015C000107083F311886FF00A00F8BD01262E70A9
:1015D00083F311884FF0804419B33846FFF766FB58
:1015E000C4F80071D4F80433C4F804632660D4F856
:1015F000002192B10022C4F800210E4A13F0010F1D
:101600004FF0010308BFC4F808330020C2F880314E
:10161000FFF73CFB00232B70C4E720BF40BF20BF77
:10162000E5E7C4F800112660F4E700BF12000020CF
:101630001100002000E100E0F8B506460C464FF02E
:101640002002EFF3118382F311882C4A157865B1DB
:1016500083F311884FF08043D3F8183413F4803F9C
:101660000CBF6FF043000020F8BD0127177083F313
:1016700011882846FFF71AFB4FF080430221C3F878
:101680000451D3F80423C3F80413C3F818459F602A
:10169000D3F8041171B39207194F58BF02224FF0CB
:1016A00000014FF00105C3F804114FF0000058BFCE
:1016B000C3F80823C7F88051FFF7E8FA4FF08043DA
:1016C00000211822C3F80823C3F80C11C3F8101125
:1016D00014F00301BED11020C3F83805C3F8042369
:1016E0003046C3F80453FFF74FFF0028B2D1C7F8C4
:1016F0000051AFE720BF40BF20BFC9E71000002066
:1017000000E100E0F8B54FF080430546D3F808E16A
:10171000D3F80423D3F80C44D3F80071D3F80401B0
:10172000D3F80C11D3F8106102F00102BEF1000FE2
:1017300003D04FF0000EC3F808E127B14FF080430B
:101740000027C3F800713AB1E30341BF4FF0804373
:101750000122C3F808231A6120B14FF08043002210
:10176000C3F8042149B14FF080440021C4F80C11A2
:101770002846FFF7CFFE0123636176B14FF0804327
:1017800000210124C3F810112846C3F80443FFF7D1
:10179000FBFE10B9014BC3F80041F8BD00E100E0C9
:1017A00000688068006841B9D0F8101521FA02F28B
:1017B00002F001021A6000207047D0F81025F9E706
:1017C00000688068006849B9012191401BB1C0F8E8
:1017D000081500207047C0F80C15FAE7C0F804356A
:1017E000F7E710B583683AB11A680A605A68196059
:1017F00002B95960002010BD18680028FAD0814253
:101800000ED15C68086832B9A142186000D15860F6
:1018100000230B60EEE7A142106008BF5A60F7E7B3
:1018200002460068E9E700000C4B30B50C4D1C681F
:10183000002324FA03F2D20708D503F5A27255F863
:101840002220C2F30422824200D121B10133082BAD
:10185000EFD16FF01203184630BD00BF200000200A
:101860000060004070B514460D46C9B9036886682B
:101870009B6810461979FFF7D7FF002812DBB26882
:10188000012303FA04F4144300F14001064AB46052
:1018900003FA00F042F82150C2F80403284670BD54
:1018A0006FF0220070BD00BF0060004070B51446AC
:1018B0000D46B1B9036886689B6810461979FFF731
:1018C000B3FF00280FDBB268012303FA00F003FA2C
:1018D00004F4054B22EA0404B460C3F80803284664
:1018E00070BD6FF0220070BD006000402DE9F04136
:1018F00006681446B268156819B16FF02200BDE899
:10190000F08103F44072B2F5807FC3F30130C3F37A
:10191000813C03F4403758D0B2F5007F0CBF04225D
:101920000022B7F5803F08BF002713F0010F4FEAF0
:101930008001DFF8CCE004F5E0704FD00C2A46D1EE
:101940000127A740C5F8087561445EF8211041F0F1
:1019500003010A4345F8202013F0020049D0B26881
:10196000990692F80480C8D55A063DD413F0040FA6
:1019700014BF4FF480354FF400351F4E376838469A
:10198000FEF760FC082832D041462046FFF74CFFA6
:10199000002808DAFB4393FAA3F0002BB0FA80F09A
:1019A00008BF4FF0FF300123834024023B4304F47F
:1019B000F854336000F5A270104B44F001042C433E
:1019C00043F820400020BDE8F0810C22A9E7042A5A
:1019D00002BF0127A740C5F80C75B5E761445EF862
:1019E00021100A433A43B5E74FF44035C5E76FF09D
:1019F0000400BDE8F08100BF20000020006000402E
:101A000008CA000008B5002205210620FFF770F97A
:101A10000620FFF73BF9002008BD0000002170B54B
:101A20000A460C4601258B0003F1804303F5C043B1
:101A3000D3F8000140B1D3F81005C3F80041C0F35A
:101A4000042305FA03F31A4301310829EBD1084EA8
:101A5000B3689D681C6815404CB1A3681D4204D052
:101A600063682A462146304698472468F4E770BDEB
:101A70006035002003689B681B68D3F8082132B1E9
:101A80000020C3F80801D3F818350B7070474FF0E9
:101A9000FF30704703689B681B68C3F81C15D3F8B8
:101AA0001C21002AFBD00022C3F81C2108467047E5
:101AB00003689B681B68D3F8240118B1D3F880042D
:101AC000C3F8800400F00F0070470000F8B5036809
:101AD0009B68054618481C6809F0F8FB43680646F1
:101AE0001F680D2240F201130021B84773681F6878
:101AF000002319460F223046B8470D23C4F80C3591
:101B00000F23C4F81435AB684FF4E1321A602B6828
:101B10009B681B684FF0EB72C3F824250423C4F8BC
:101B2000003500200123C4F81C01C4F80801A3609B
:101B30002360024B6B60F8BD6CCA00007CCA0000D9
:101B40002DE9F0418378C4781E1DA3420A4406445F
:101B50001FD8E41AE4B2A1423EBF641AE7B20C46B1
:101B60002344A1EB040128BF0027DBB2C9B23444EF
:101B7000A64209D183704378BB4282BF204B012229
:101B80001A600846BDE8F08116F8015B02F8015DB5
:101B9000EEE70578ED1AEDB2A9423FBF671AED19DD
:101BA000EFB20D4638BF5B18A1EB050132BFDBB2C7
:101BB00027460023C9B2964606EB050C664519D1A7
:101BC000521B0029D6D0002CD4D08C428ABF0B46A1
:101BD0002346641A00F10406A1EB03018CBFE7B2AF
:101BE0000027C9B2F418A642C4D016F8015B02F867
:101BF000015DF8E716F8018B0EF8018DDEE700BFF6
:101C000000D0004030B5D0B1C27805788478531C3C
:101C1000DBB2AB4208BF0023A34210D061B10A4936
:101C20000244D1F808151171C3700133DBB29D4233
:101C300008BF0023A34205D06FF00F0030BD6FF046
:101C4000360030BD002030BD00D0004070B5846843
:101C500001221146204609F0F9FE04F11800012284
:101C6000002109F0F3FE042384F831300C23002511
:101C700084F83D300521114B84F830100D2684F88E
:101C8000335084F8325084F83C6084F83F5084F834
:101C90003E50D3F8042542F00102C3F80425012286
:101CA000C3F800513046C3F804231A602A46FFF7F0
:101CB0001FF83046FEF7EAFF284670BD00D000400E
:101CC00038B5124BD3F80031FBB18568012105F11D
:101CD0003C00FFF797FF10F1100F04460DD010F1F4
:101CE000370414BF0021012105F13000FFF78AFFFE
:101CF000044605F1180009F0B3FE044B002210342D
:101D0000C3F800211CBF01225A6038BD00D000403A
:101D10002DE9F84385680F46144605F1180814B9F3
:101D20002046BDE8F883FF2C234628BFFF23E41A92
:101D3000DEB2A4B205F130094FF0FF31284609F0B8
:101D4000EBFE31463A464846FFF7FAFE064628467D
:101D500009F086FE002EE2D04FF0FF31404609F038
:101D6000DBFEE9E7134602480A461946FFF7E8BEDC
:101D700060000020084BC3F84005D3F80435C01AB2
:101D800020F07F40054B0238984282BF044B4FF44D
:101D90000032C3F80021704700100140FDFF7F00B2
:101DA00000E100E010B5124B124CD3F80405226894
:101DB000801A20F07F40B0F5A37F11D90E49096841
:101DC00040F24713B0FBF3F0884228BF084603FBFC
:101DD000002323F07F432360084B186009F0C4FE02
:101DE0002068BDE8104000F24710FFF7C3BF00BFF6
:101DF000001001407800002074000020EC34002026
:101E0000024B0022C3F84021FFF7CCBF0010014075
:101E100046F23543984228BF1846054B1860054BDB
:101E20001B6840F2471202FB0030FFF7A3BF00BF60
:101E3000740000207800002008B5074B0022C3F88A
:101E40004021064B4FF40032C3F88021FFF7AAFF70
:101E5000034B01221A6008BD0010014000E100E0C0
:101E60007400002070B5184809F030FA48B3436890
:101E7000164D1B6801219847154B00241C60154B1B
:101E800001261E6040F24713C5F80845C5F84035E5
:101E90004FF48033C5F84433C5F804330E4BC5F80E
:101EA00040414FF40032C3F88021314622461120D0
:101EB000FEF71EFF1120FEF7E9FEAE6020462E6001
:101EC00070BD4FF0FF3070BDF0C900000010014040
:101ED000780000207400002000E100E030B50B4ADB
:101EE0000B48D2F80415D0E90045D2F804359942E0
:101EF0000AD1084A40F2471303FB1413106823F079
:101F00007F4300FB043030BD1946ECE70010014070
:101F1000C8120020F034002070B54FF02003EFF31A
:101F2000118583F31188144C144E237803EBC312EC
:101F3000013303F003033244237085F311884029F1
:101F400028BF40210E4D0138134602EB4106B34233
:101F500004D1002302F81130104670BD44782409E2
:101F600002332C5D03F8024C10F8014F04F00F040B
:101F70002C5D03F8014CEAE7B3000020B400002018
:101F800096CA000070B51D4A1D49137803EB43063D
:101F9000013303F00103137003788AB006EBC60621
:101FA00004460E4407AD032B21D8DFE803F0021AE4
:101FB0001C1E14492846FEF7C9FA62780492A278DA
:101FC0000392E27802922279019262790092A379D7
:101FD00005950D4A1B213046FFF72EFA30460AB010
:101FE00070BD0A49E6E70A49E4E70A49E2E70A4A16
:101FF0000A212846FFF720FADFE700BFB2000020E1
:102000007C00002008C5000031C500000FC500009D
:1020100016C5000020C500002AC5000070B50B4D94
:1020200006460FCD8AB06C460FC40FCD0FC495E89D
:102030000300092E84E803009BBF0AAB03EB86066E
:10204000034856F8280C0AB070BD00BFCCC300008E
:102050007CD3000000B5BFF35B8F50E8003F43EA3C
:10206000010240E8002EBEF1000FF6D1BFF35B8FF6
:1020700018465DF804FB00B5BFF35B8F50E8003FE6
:1020800003EA010240E8002EBEF1000FF6D1BFF3D3
:102090005B8F18465DF804FB2DE9F041064686B0DB
:1020A0009079264F8846154608F0E2FF874213D004
:1020B000AC79204608F0DCFF214B059303908DE8B6
:1020C0004800049702941F4B1F4A20492048FFF7FD
:1020D000A5F906B0BDE8F081284608F0CFFF1D4CF9
:1020E00004EBC0004388B34210D0284608F0C6FF76
:1020F000134B039304EBC0001449428802928DE80D
:102100004800114A0F4B1448FFF788F9284608F099
:10211000B5FF04EBC0004368002BDAD0284608F076
:10212000ADFF04F83080284608F0A8FF04EBC0009B
:10213000406806B0BDE8F04109F092BCAC35002023
:102140008FC60000B7CA000090CD000097CD0000F8
:102150009ACD0000B8020020DFCD0000074BBFF38E
:102160005B8F420903EB820300F01F001B6FBFF37C
:102170005B8F43FA00F000F00100704798320020B6
:102180002DE9F047804689461348144D4FF0FF3142
:1021900009F002F8044600F1080600213046002745
:1021A00009F019F82775204608F068FF05EBC00014
:1021B000A0F80280204608F061FF05EBC000032173
:1021C0004760304609F04AF880F80290A0F8008095
:1021D0002046BDE8F08700BFAC350020B8020020E3
:1021E00070B5154686B00C4619B9FFF7C9FF04460D
:1021F00068B301220021684609F028FC204608F057
:102200003DFF144E06EBC000C0F804D0204609F094
:1022100021F82146104808F0E2FF42F210716846AA
:1022200009F07AFC204608F029FF16F8300030B19A
:10223000204608F0E1FF6FF0040006B070BD0DB15C
:102240002C60FAE7204608F0D7FF2846F5E76FF044
:102250003600F2E7B80200204C33002070B5154D6F
:10226000062205F108010646FEF787F90446D8B1B3
:10227000062142F20500FFF783FF0446B0B10622B3
:102280003146083008F0F0FF2146002242F20500F6
:10229000FFF7A6FF044638B90622314605F10800CB
:1022A000FEF780F90123EB71204670BD6FF0360414
:1022B000FAE700BF9832002007B50621684601F012
:1022C00069FF40B99DF80530684603F03F038DF87B
:1022D0000530FFF7C3FF03B05DF804FB38B50221FA
:1022E000054642F20C00FFF74BFF044620B30221E3
:1022F000083008F0B3FF012D014614D10A20FFF782
:102300002DFF48700D700022214642F20C00FFF7AD
:1023100067FF044628B9012D08D180210848FFF73E
:1023200099FE204638BD00234370EBE76FF0800133
:102330000348FFF7A0FEF4E76FF03604F1E700BFB3
:102340000833002008B50820FFF708FF014640B910
:102350000720FFF703FF20B10846BDE80840FFF75C
:10236000BDBF002008BD012310B50621044600F8BA
:10237000013B01F00FFF18B9A37963F03F03A3718C
:1023800010BD00002DE9F0418EB00CAA002140F6EE
:102390000340FFF725FF044600287ED10C9B9B6875
:1023A0001B786BB9A14A1360A14BBFF35B8F01226D
:1023B00053E8001F43E800200028F9D1BFF35B8FEA
:1023C0000C9808F019FF0CAA002141F20300FFF756
:1023D00007FF0446002860D10C9B964D996808229F
:1023E000013105F11600FEF7DDF80C9808F004FF46
:1023F00021460CAA41F20100FFF7F2FE2E460446E8
:1024000000284AD10C9883685A78AA73D9789A78A8
:1024100042EA01222A821A79EA73197ADA7942EABF
:1024200001226A825A799B7942EA0323AB8208F03F
:10243000E3FE21460CAA41F20900FFF7D1FE044653
:1024400058BB0C9B996806220131681CFEF7AAF85C
:102450000C982C7008F0D0FE21460CAA41F2020024
:10246000FFF7BEFE0446C0B90C9B996840220131BB
:1024700005F11E00FEF796F80C9808F0BDFEAB7E45
:1024800058060ED46C4B019300936C4A6C4B6D490B
:102490006D48FEF7C3FF6FF0120420460EB0BDE892
:1024A000F08121460CAA42F20300FFF799FE044690
:1024B0000028F2D10C9B99680822013105F17800BF
:1024C000FEF770F80C9808F097FEAB7E99067AD567
:1024D00096F83A301A0700F19280082142F2010082
:1024E000FFF74EFE0446002874D00821084408F087
:1024F000B5FE96F8403003F00603062B14BF022306
:102500004FF4C173002203701B0A43708270C270C3
:10251000027142718271C271214642F20100FFF7DD
:102520005FFE04460028B8D1082140F60140FFF7BD
:1025300027FE054600284DD00821084408F08EFEED
:10254000802343700223C3702023047084700471BD
:1025500044718471C3712246294640F60140FFF759
:102560003FFE0446002898D101460CAA4FF60140D0
:10257000FFF736FE304D002874D0344B344A3149D1
:10258000344801950095FEF749FF002307220AA968
:1025900028480A93CDF82B30FDF7EFFF002840F0D4
:1025A000DB802D4A13689046002B40F0158196F889
:1025B0006030DB0700F1358101950095274B244AF7
:1025C000204927483AE1022140F66D40FFF7D8FD47
:1025D000054610B96FF036045FE70221083008F0B5
:1025E0003DFE0123447003702246294640F66D40AB
:1025F000FFF7F6FD044600283FF46AAF4DE70CAA4A
:10260000002142F21C00FFF7EBFD044600287FF496
:1026100044AF0C98836853F8012F5B68C6F8843088
:10262000C6F8802008F0E8FD57E700BF140300203B
:1026300008330020983200208FC6000022CE000010
:1026400006CB000097CD000029CE00002CCB000067
:1026500090CD00005DCE0000E81100200ECB000000
:1026600001D000000C9B9A499F689A48B7F8013046
:102670000293032B96BF984A984A52F8232001925E
:10268000974B984A03950095FEF7C8FEB7F80130BE
:10269000B7F80320022B3AD1022A38D8924B53F8CC
:1026A0002230029201938F4A8D4B89490395009500
:1026B0008E48FEF7B3FE7B790695D7F80910059191
:1026C000032BB7F8071098BF894A0491B97994BFD2
:1026D00052F82320814A039102937D49804B019255
:1026E0000095804A8348FEF799FE0C9808F084FD17
:1026F0000CAA00214FF60240FFF772FD074640B1D9
:1027000001950095764B7C4A71497C483BE7734BB9
:10271000C7E70C9B7A48996802220131FDF742FF16
:102720000C9808F069FD0CAA39464FF60340FFF7F4
:1027300057FD30B101950095694B6F4A6449714866
:1027400021E70C9B7048996801221144FDF72AFF8C
:102750000C9808F051FD18E76C4B18689A880C909B
:102760009B79ADF834200CA9072269488DF83630E2
:10277000FDF703FF00283FF414AF6548FFF702FCA4
:10278000644B0190574A5249029500956248FEF702
:1027900045FEB77B3846FFF741FC0595B38A0493A5
:1027A000338A0393029701905A4B4E4A4849009549
:1027B0005A48FEF733FEF77B3846FFF72FFC0495A7
:1027C000738A0393019002970095524B454A404902
:1027D0005348FEF723FE60E600211F684C4A07239A
:1027E0000846B84707287FF4E2AE3378012B04D1BE
:1027F000B37903F0C003C02B5ED001950095494B1F
:10280000494A33494948FEF709FE6FF0150701951B
:102810000095474B444A2E494648FEF7FFFD3C468B
:102820003BE609AA00214FF60940FFF7D9FC40B169
:102830003C4B314A2649404801950095FEF7EEFD94
:1028400019E0099B99684B7853B1012306220231A4
:102850003A483370FDF7A6FE099808F0CDFCC4E7AE
:10286000019500952F4B244A19493548FEF7D6FDAE
:10287000099808F0C1FC2648FFF775FD07460028B7
:10288000C5D1D8F8003083B1D3F80480204A07239B
:102890000146C0470728A8D0224B234A0C492948A3
:1028A00001950095FEF7BAFD9FE7019500951D4B38
:1028B000114A07492448F5E72048FFF7CFFC0746AF
:1028C0000028A4D104212148FFF7C4FB55E700BF2D
:1028D00097CD000098CE00008CD200007CD3000081
:1028E0002CCB000091CE000080D20000C1CE0000B1
:1028F0006CD30000E9CE000090CD000026CF000090
:10290000F73200205FCF0000F6320020F4C3000051
:10291000983200201ECB0000E3D0000000D1000060
:102920004ED100000ECB000022CE0000A2D000004D
:1029300038CB000085D1000098CF000099320020EC
:10294000C8CF00003DD000006CD00000083300204C
:1029500010B5FFF717FD044630B902210648FFF70E
:1029600079FB2046FFF7EEFC044B1B681BB12046A9
:10297000BDE81040184710BD0833002010030020A8
:10298000024BD3F8C430DB68184700BF98320020F0
:1029900030B5044685B00D4619B9FFF7F1FB054681
:1029A000F0B140F635439C4214D12846FFF7E8FFCA
:1029B000044660B10C4B02938DE818000B4A0C4B97
:1029C0000C490D48FEF72AFD284608F015FC204664
:1029D00005B030BD2946094808F001FC0024F6E79F
:1029E0006FF03604F3E700BF8FC6000022CE000070
:1029F000A7CA000097CD0000B5CB00004C330020E3
:102A00002DE9FF41444C454E04F1B408737B434823
:102A10006FF307134FF0FF320121737309F0CEFB00
:102A2000002861D1737B1B09012B0BD9042B0CD01F
:102A30003B4A02928DE80C003A493B4B3B4A3C48EA
:102A4000FEF7ECFC08F068FFE0E7377B002FF9D1D8
:102A50003946404608F0A6FB0546002853D04FF003
:102A6000FF31344809F058F8D4F8A03063BB284649
:102A700008F0F0FBC4F8A0002846FFF781FF00280B
:102A8000E0D0274B2C4A27490293019000932B4812
:102A90002B4BFEF7C3FC274808F0E2FF284608F05E
:102AA000EDFA284B03EBC00000221F214088FFF7FE
:102AB000F3FAD4F8A00008F09FFB00232846C4F8DE
:102AC000A03008F099FBBDE7154B019300931A4A1B
:102AD0001B4B14491C48FEF7A1FCD4F8A00008F0D9
:102AE0008BFBC4F8A070C2E70D4B01930093124A10
:102AF000164B0C491648FEF791FC404080F31188B4
:102B00004FF0040002DF064B019300930A4A0C4B7E
:102B100004491048EFE700BF9832002060330020DE
:102B20008FC6000097CD0000E9CA000090CD0000DC
:102B3000B4D100002033002022CE0000B5CB00002D
:102B4000E0CA0000B8020020E5D10000F8CA000089
:102B500010D200003AD200002DE9F04F067D012E80
:102B60008BB004466BD187683B780E3B012B76D83F
:102B7000684B01930093684A684B69496948FEF7BE
:102B80004DFC404080F311884FF0040002DFA7683D
:102B900065486FF01001FFF76EFA3B7843B9791C76
:102BA00040226248FDF7FEFC31465F48FFF752FACB
:102BB0005F4B1D687E1C35B9204608F01DFB0020C8
:102BC0000BB0BDE8F08F3A782B68002A0CBF304676
:102BD000002098476D68EEE7564DA0682A68002AE5
:102BE000EAD0037823B90130904700232B60E3E754
:102BF0000020F9E7FDF7D6FC67E0A589A068294623
:102C0000FFF78AF9434B049303908DE848004A4A42
:102C10004A4B43494A480295FEF700FCCCE7A58998
:102C2000A0682946FFF778F93A4B049303908DE8A2
:102C300088000295394B404A39494248ECE7354B08
:102C400002938DE84800344A3F4B35493F48FEF730
:102C5000E5FB204608F0D0FA6FF01500B0E700F170
:102C600008050221284608F008FB3F783E2FD6D100
:102C7000A7683146284608F000FB3E78082E86D02B
:102C8000092EA9D0022EB8D1284608F0FEFADFF8A6
:102C9000C0A00790079B002B8ED0A668092128466C
:102CA00008F0EBFA337A31463344072293F809B03F
:102CB00011F8013F023B012B08A89BD8FDF772FCDD
:102CC0009DF82030023B8DF82030DAF80030ABB1AF
:102CD000284608F0E2FA337AB4F80C80A3818146E2
:102CE0002B463278DAF800704FFA8BF108A8B84713
:102CF0002369A4F80C8013FA89F3A360317A28467B
:102D0000013108F0BAFA079B03F1FF385FFA88F344
:102D10000793BFE78FC6000022CE0000D6CA00008E
:102D200097CD000072CC000008330020CC020020B8
:102D30000C030020C802002090CD0000C4CA00008F
:102D4000E7CB00001CCC000041CB00004ECC0000C3
:102D5000140300202DE9F341037D8668012B04460E
:102D60000ED0324B01930093314A324B32493348F3
:102D7000FEF754FB404080F311884FF0040002DF5F
:102D80008389012B07D8294B01930093284A294BAB
:102D900029492B48ECE733780E3B012B3ED800F154
:102DA00008050221284608F068FA33780E2B0CD06B
:102DB0000F2B23D0204608F01FFA1C4B01930093E1
:102DC0001B4A1C4B1C491F48D2E7A3680321284615
:102DD000B3F801701E7808F050FAA36822461978FB
:102DE0003846FFF759F916B1174808F039FE204662
:102DF00008F002FA002002B0BDE8F081A668B6F83B
:102E0000028077780421284608F037FA2246317884
:102E10004046FFF741F9002FE9D0E5E7034B019366
:102E20000093034A034B04490848A1E78FC60000FA
:102E300022CE000049CB000097CD0000B1CC0000AD
:102E4000F5CC00002FCD00002033002052CD000033
:102E5000084AD2F8C4303BB9816841B1C16831B188
:102E6000C2F8C400184670476FF0440070476FF016
:102E7000150070479832002070B52E4DD5F8C4303B
:102E800086B006466BB92C4B019300932B4A2C4B12
:102E90002C492D48FEF7C2FA6FF01204204606B006
:102EA00070BD012105F17000FFF7D4F810F00100AA
:102EB0003DD1264B26491E606FF008030590049013
:102EC0000393029001900090224B23484FF46B72C1
:102ED00008F0D1FFD5F8C4309B689847044650B13C
:102EE000154B02938DE81800144A154B15491B48E1
:102EF000FEF794FAD2E76EB9FFF744FA04460028C9
:102F0000CCD1022105F17000FFF7A4F82046FFF7AD
:102F100019FAC3E7012105F16C00FFF79BF8C3071D
:102F2000BCD405F164010E4808F027FBB6E76FF04A
:102F30004404B3E7983200208FC6000022CE000080
:102F400056CB000097CD000060CB0000100300209E
:102F500048130020012A00001803002089CB00003C
:102F6000D01200202DE9F3410378012B05460F46CE
:102F700010D84378012B0DD841880B1F9BB243F624
:102F8000FC70834206D8AA88131F9BB2834201D8E3
:102F900091426CD26FF01504204602B0BDE8F0817A
:102FA0000720FFF7DBF850B10846FFF797F9044612
:102FB00028B16FF480713548FFF75DF8ECE76B7866
:102FC000002B48D04FF480613048FFF743F80722C8
:102FD000002168462E78B5F80280AC88FDF70EFB1C
:102FE00000238DF806302A4B8DF800601B78ADF871
:102FF0000180012EADF803408DF805300AD105207F
:10300000FFF7ACF830B9FFF757F904460028D0D1E4
:103010008DF80560072142F20B00FFF7B1F8044676
:1030200080B307226946083008F01EF9214642F2B3
:103030000B00FFF7ADFC0120FFF750F90446002814
:10304000B7D1012E0DD14FF400711048FFF702F8EF
:10305000104B1F60A0E76FF480610C48FFF70BF87E
:10306000B5E76FF400710948FFF705F8F0E74FF492
:1030700080710648FEF7EEFF10F4807190D06FF07B
:10308000440489E76FF0360493E700BF083300205B
:10309000983200201403002038B50546054808F092
:1030A0007BF8044620B10021083008F094F825751B
:1030B000204638BDCC35002010B501464FF0200326
:1030C000EFF3118083F311880B4A0023D2F8A0405C
:1030D000C2F8A03080F3118824B90120BDE8104067
:1030E000FFF7DABF012204F108002275A381194617
:1030F00008F071F8204610BD98320020F7B518602E
:10310000C31D054623F00303501E0E4680B214462D
:103110001A800021042206FB0050FDF76FFA023CE2
:10312000A4B24FF6FF77BC4201D103B0F0BD04FB5F
:1031300006602B180422801B0DEB02012844013C81
:103140000193A4B2FDF72EFAEDE773B505680646C4
:1031500095B1EB1D23F0030304221C8829460DEBD7
:103160000200FDF71FFA019B013CA4B21BB1DA1D5E
:1031700022F0030214803360284602B070BD70B59F
:103180000C6806460D461CB1E31D23F003031C88A2
:10319000042229463046FDF705FAF21D22F003020B
:1031A000631C13802E6070BD02FB01007047401A43
:1031B00080B2B0FBF2F0704710B5114401384FF601
:1031C000FF73013A92B29A4200D110BD11F8014D3D
:1031D00000F8014FF5E710600860704710B51468FB
:1031E000206014686160106010BD884203D01AB17D
:1031F000436813607047002070470B68834209D012
:1032000022B1586810601A680A6001E0002BFAD1F8
:10321000184670470023FBE72DE9F047114FDFF810
:1032200048900426013EF6B2FF2E19D033B24FEA81
:10323000830803EB43031D0104244FF00C0A0AE04A
:103240001AFB04510A1D04EB08003A44394409EB07
:10325000C000FFF7C0FF013CE4B2FF2CF0D1E1E772
:10326000BDE8F0870004002080030020F0B4124B7A
:1032700005460F460C26302472B1614306FB00144C
:103280002344597A187A814204BF013119722846C1
:103290003946F0BC07F0DCBD4C4306FB0044234438
:1032A0009C7ADA7AA24204D101329A72F0BC07F019
:1032B0002FBEF0BC704700BF00040020F8B50546E3
:1032C0000E461C468AB1012362782078801A10F0DD
:1032D000030729D003B3012F39D00132D2B22270B3
:1032E0003146284607F014FE1CE007F0FFFD0028D9
:1032F000E9D03146284607F0D3FD0028E3D030233B
:103300000C22734302FB0533124A1A44937AD27A91
:103310009B1A18BF0123D7E70232D2B22270E368AA
:10332000A06898470020F8BD002BF8D00132D2B237
:1033300022700423302212FB06320C2313FB0523D8
:10334000044A60681A442146FFF748FFC8E7384638
:10335000F8BD00BF000400202DE9F04F00EB400352
:1033600089B01B014FF00008434E04930546042426
:10337000CDF80480013CE4B2FF2C0BD1019B002B63
:1033800076D0B8F1000F73D142462946284607F09F
:103390005FFD6DE00DF1200B00230C274BF8043D81
:1033A0004FF0300907FB04F309FB053031185A468A
:1033B000496830580293FFF718FF049B17FB043746
:1033C000F31982460393BAF1000F19D130220C236E
:1033D0006A4303FB04223244917AD07A88421EBFAA
:1033E000D1720122019230226A4303FB0423334449
:1033F0001A7A597A91421CBF5A724FF00108B9E704
:10340000079B1F785A78BF1A07F00307012F04D1D2
:10341000013A5A709868DA689047079A1378527898
:10342000DBB29A1A02F00302012A05930DD0029B27
:10343000039909FB0530304400224068FFF7DDFEA8
:10344000079A059BC2F804A05370029B09FB053341
:10345000F1185A464968F058FFF7C7FE012F824617
:10346000B1D10CB90028B1D02946284607F050FD4B
:1034700009B0BDE8F08F00BF0004002010B5421E67
:1034800000200139C9B2FF2900D110BD12F8013F57
:10349000002BF6D05C1E01302340C0B2F8E7F0B537
:1034A000437F05681A460024FF2A01D10020F0BDA1
:1034B00002EB82078A4205EBC70615F8377004D085
:1034C000B3681C4413463A46EEE7934200D147776F
:1034D0001BB203EB83033278B06805F833203378EE
:1034E000FF2B06D003EB830305EBC3039A6802446A
:1034F0009A602044F0BD30B5551A15F4000F83686A
:10350000446909D125F07F421A44A2420ED9121B08
:1035100000248260446130BD8A1A22F07F429342C7
:1035200001D99A1AF1E72244D41A0022A41A0022DF
:10353000EFE7034600221A709A6A596208460AB1F8
:10354000D96A104770472DE9F047857F012304466B
:10355000C377002D4CD1437FFF2B02D1C577BDE847
:10356000F08707F01DF86769667FD4F80080C71BF5
:1035700027F07F47FF2E06D006EB860608EBC60134
:103580008B689F4218D2A27AE37A934205D1013325
:10359000DBB2022B08BF0023E372E37A04EB830360
:1035A0000122DD600023656AE377AC4623460421EF
:1035B0000320BDE8F0476047FF1A1D448A784B7826
:1035C00018F836609B1ADBB2012BD3D1D1F80C90DE
:1035D000013A8A70B9F1000FCCD048696369CA8B8F
:1035E000281A184420F07F400B69496AC847C1E790
:1035F000BDE8F0872DE9F04FC27F95B08346002AE1
:1036000040F0BE83436907930121837A8177C07AB2
:10361000984200F08F800B44DBB2022B08BF0023DE
:103620008BF80A300BEB83030391D3F80C80079BD4
:10363000434423F07F43CBF814309BF81D300593AF
:10364000DBF800300693DBF804300D939BF809306B
:10365000013BDBB20493002309934FF0FF0A049B64
:10366000FF2B6AD19BF81D30059A9B1A18BF0123C6
:103670000493039BE3B1DBF8003006934FF000099D
:103680009BF81D60FF2E0CD037B2069B07EB870717
:1036900003EBC704A568454540F23681A5EB080554
:1036A000A560049B039A0599B14218BF1346049381
:1036B000DBF800300A93DBF8043012939BF80930F2
:1036C000013BDBB20393039BFF2B40F070819BF81F
:1036D0001D30059A9342099B40F049835BB99BF8E2
:1036E0000940DBF804300393013CE4B24FF00008DA
:1036F000FF2C40F0A08200238BF81E30049B4BB1BE
:103700009BF81D30FF2B40F0E98206F01BFF08B943
:10371000CBF818009BF81F30002B00F03183DBF84A
:1037200024405B46012203210420A44615B0BDE8D5
:10373000F04F6047039290467FE70D9B049A03EB9E
:10374000C2077B680893F978BE788E4200F0D78074
:10375000089B387806EB460212019D18731CDBB2F9
:10376000984208BF0023BB70089B9A5C032AEBD9E0
:10377000052A17D8697801EB81030C930C98069BF6
:1037800003EBC0046378A0781B1A13F0FF0309D081
:10379000042A0CD16A6852B9AA6842B9EA6832F0C0
:1037A0007F4204D101212846FFF7C3FECBE7012B5E
:1037B00040F09B805846FFF772FE2B78A060042BE8
:1037C000064640F08480DBF814300A9306F0E8FEE9
:1037D0000A9B0B90C31A23F07F4343449E42024648
:1037E0009EBF6269921B9B18626896BF6361F31A61
:1037F00000238AB1A98979B101F1FF3E1FFA8EFE3B
:10380000A5F80CE09A422BD3DFF82493B4F81EC03D
:10381000E64547D8A4F81CE0AA880A991344A36097
:10382000EA886369134463610B9A2046FFF763FEDD
:10383000A2692B891344A3616A8993428CBF9B1AA6
:103840000023A361AB7B03B1E370069B0C9A03F8E2
:1038500032A0637895F801A0013363700021A2E7DC
:10386000B4F81EC0E645CFD2616AAF4EAF488E199C
:10387000864281BF01F1E87101F5D43101F5A571EE
:103880006162666A216A8CBF4FF001094FF000093E
:10389000761A91440CF1FF3C6662A3EB0903A4F88D
:1038A0001EC0AFE7666A216AA0480E449E4971189F
:1038B00081428EBF002101214E4411440CF1010CC4
:1038C0008CBF666266620B44A4F81EC09EE7A378B4
:1038D00063706B789BF81C209A4201BFFF238BF822
:1038E0001C300023CBF81830B8E704215B46DBF826
:1038F000244001220846A0470123BE700993049B7F
:10390000013BDBB20493AAE6DBF818309D4229BFE5
:10391000FF235B1B8BF81C300023CBF81830A36906
:10392000A9441BB18BF81C60CBF818300022069B11
:10393000A26013F837308BF81D30D4F804E0BEF1E4
:10394000000F30D0A08BDFF8E4C1636A216A0B441A
:103950007549591861459FBFA3F1E873A3F5D433A6
:10396000A3F5A573636292BF039B63620023734454
:1039700010F1FF301A44E8D2079BA260DBF8141064
:1039800003EB09022046FFF7B6FDA38BE383002378
:10399000E370069B03F837A0637801336370A8EBEC
:1039A0000508B2466CE6A37863705646F7E7129BAB
:1039B000039A03EBC20306935B680C93069B93F890
:1039C0000190BAF1FF0F00F08E800FFA8AF303EB3B
:1039D00083030A9AD04612F833A002EBC3040025F1
:1039E000DBF800300D93FF23A28B2370E38B93420F
:1039F00086BF9B1A9BB200230E930FFA88F303EB4A
:103A00008303DB001393139BDBF80020DBF8180023
:103A1000079002EB030EFF209BF81D30DEF8081024
:103A20000B930890FF2B07D003EB830C02EBCC0623
:103A3000B068814200F2A980DEF818000F9001EB17
:103A4000000C1E46FF2E40F0AE800F9830B1079854
:103A50008142C0F0BF80FF2E40F08E810B98CEF8DF
:103A60000810834218BFBDF92C008EF8003016BF35
:103A700000EB80008BF81D8002F83080FF2B06D011
:103A800003EB830302EBC3039A68511A9960A3788E
:103A9000013363700021002D93D02846FFF749FDC4
:103AA0008FE709EB49030C9A1B01D51809F10102B4
:103AB0005FFA82F9069A12784A4508BF4FF000096A
:103AC0000C9AD35C032B0ED195F801800A9B08EB6E
:103AD000880403EBC4046278A3789A4209D00121D8
:103AE0002846FFF726FD069B9B784B45D9D1039BC3
:103AF000E6E5EB68DBF8141063602B692362AB8AA0
:103B0000A383AB69A361EB69E3602B6A23610026A1
:103B1000AB68A36066616A682046FFF7ECFC01238E
:103B20006662E683E3705BE75A2B17FF592B177F1A
:103B3000B6562EFE606800287BD0626A216A924BDE
:103B40000A449249D3188B429CBFA2F1E872A2F5B5
:103B5000D432A3688BBF6262A2F5A57200226262B2
:103B6000034498BF01221344E28BA3600132E28335
:103B7000626993424FF0000189BF9B1AD31AA36078
:103B800061619CBF6361A1603DE7B669091A46B9EE
:103B9000079FB84200D23E1A0B93079612F83C30AA
:103BA00040E70893F8E730B200EB800002EBC00773
:103BB0001097BF68119767450AD2109FBF69002F01
:103BC0007FF443AF119EACEB060C12F8306039E77E
:103BD000FF263AE7089B98453FF459AF089BFF2B17
:103BE000A8D01E4633B203EB83030793079A0D9BBD
:103BF00003EBC207FB8BBA8B934288BF9B1A7A6890
:103C00008CBF9BB20023002A94D00E9A934291D885
:103C1000FA78E3789A428DD231465846FFF73FFC56
:103C2000BB787B70079A0D9BB86003F832A0B24650
:103C3000E9E601212FE7039B03EBC4056E686B786F
:103C4000EA789A4202D1013CE4B251E503EB430326
:103C50001B01F218F35C012B25D0022B2AD1D2F8DC
:103C600004C093689CF80000D2F80C90DBF800E0E8
:103C7000FF2804D01968DBF81470B94223D0DBF8B0
:103C800014009BF81D1018600023FF2907D001EBDA
:103C9000810A0EEBCA0087698068DFB103448CF8A3
:103CA0000010C9F80030936AC2F8248013B1D16AB9
:103CB000002098476B782A780133DBB29A4208BF1C
:103CC00000236B70BBE700EB8000D9F800301EF8D2
:103CD0003010DAE703441EF83A10D6E7059BFF2BB5
:103CE00007D106F05DFC044606F01EFC08B9CBF8CF
:103CF00014409BF81D30DBF8002003EB830302EB3C
:103D0000C3030A269D6806F04BFCDBF81440031B36
:103D100023F07F430333AB422CBFE418641924F033
:103D20007F440746DBF828302046984706F038FCE9
:103D3000C01B20F07F40E41B033024F07F44A042EE
:103D40007FF6E8AC013EDED1114B01930093114A9E
:103D5000114B12491248FDF761FB404080F3118876
:103D60004FF0040002DF00238BF81E30C8E4002B64
:103D7000F9D101230493B2E4B0457FF433AF86E672
:103D800015B0BDE8F08F00BF5A2B17FF592B177FD6
:103D90008FC6000022CE000084D3000097CD000023
:103DA0009ED30000F0B51A4D059F9DF818402C26B3
:103DB000464305EB060EAA518EF8081007998EF8B7
:103DC0000930CEF80470013BDBB2FF2B11D1ECB906
:103DD0002C2202FB005208991162099951620A993A
:103DE000916253771377946154619472D472204630
:103DF000F0BD1AB207EBC206716017F8322002EB71
:103E00004206A41A01EB0611E4B2DCE70120F0BD82
:103E1000C0040020074A2C2100FB012310B45C6A77
:103E20002CB1A44601220321022010BC604710BC23
:103E3000704700BFC00400202DE9F047254F4FF028
:103E40002C08814608FB00700FFA81FCD0F804E0D2
:103E50000EEBCC061EF83CE0F478651CEDB2AE45E6
:103E600098BF002596F801E0AE452FD0D6F804C0E3
:103E700004EB44044FEA041E0CEB0E044FF0030A5B
:103E80000CF80EA06360089BA360099BE3600A9B8B
:103E900023610C9BA361BDF82C30A3820D9BE361D1
:103EA0000E9B2362022363620F9BA362109B6270CE
:103EB000E362F570456A036A0846984709FB087390
:103EC00000220421A847606ABDE8F0870120BDE810
:103ED000F08700BFC00400202DE9F047DFF8908094
:103EE0004FF02C0A0AFB008E0FB2DEF80450814618
:103EF00005EBC70015F83750C478661CF6B2B5421A
:103F000098BF00264578B5422FD0D0F804C004EB06
:103F1000440425010CEB050404270CF80570A3806C
:103F2000BDF82030E380BDF824302381BDF828306F
:103F30006381BDF82C30A3819DF83030A373022338
:103F400063620D9BA3620E9B6270E362C670DEF833
:103F50002030DEF824500846984709FB0A830022E7
:103F60003946A847606ABDE8F0870120BDE8F087C0
:103F7000C00400202DE9F047DFF86C904FF02C0AC8
:103F80000AFB009E8046DEF804000EB200EBC60776
:103F900010F83600FC78651CEDB2A84298BF0025E9
:103FA0007878A8421DD0786804EB440424010619EF
:103FB0004FF0050C00F804C07270B3620222089B37
:103FC0007262F362FD70DEF82030DEF824400846AD
:103FD000984708FB0A9300220421A047706ABDE8B5
:103FE000F0870120BDE8F087C00400202DE9F047EC
:103FF000DFF878804FF02C0A81460AFB00800FFA28
:1040000081FE456805EBCE0715F83E50FC78661C2E
:10401000F6B2B54298BF00267D78B54223D0D7F8D6
:1040200004C004EB440425010CEB05044FF0020E20
:104030000CF805E0A360089BE360099BA362FF25E1
:104040000A9B62606570C4F824E0E362FE70456A12
:10405000036A0846984709FB0A8300220421A847FF
:10406000606ABDE8F0870120BDE8F087C004002049
:104070002DE9F047DFF86C904FF02C0A0AFB009E08
:104080008046DEF804000EB200EBC60710F83600DA
:10409000FC78651CEDB2A84298BF00257878A8424C
:1040A0001DD0786804EB4404240106194FF0010C7C
:1040B00000F804C0FF20707002207062B262F362E8
:1040C000FD70DEF82030DEF824400846984708FBF3
:1040D0000A9300220421A047706ABDE8F0870120FE
:1040E000BDE8F087C00400202DE9F041084C2C25E4
:1040F00005FB004306465F6A1B6A0846984706FBB5
:104100000543BC4600220421BDE8F041604700BFE2
:10411000C004002006F044BA401A20F07F407047E7
:1041200008B50346012B08460ED833B119B1062253
:104130000649FCF737FA054808BD19B106220449BB
:10414000FCF730FA024808BD002008BD1E0500201B
:104150001805002070B506460D4605F079F90446AD
:1041600010B10C24204670BD05F086F910F0060F42
:10417000F7D1062229461EB10248FCF713FAF1E7EF
:104180000148FAE71E0500201805002000230370EF
:104190000B707047F7B507460E460C46351B3D447D
:1041A0008CB1FDF767F9032C019007D904220DEBC0
:1041B00002012846FCF7F6F9043CEFE7224601A984
:1041C0002846FCF7EFF9002003B0F0BD08B502481F
:1041D000FEF73EFE002008BDF0D300007FB5214D64
:1041E00000264FF0FF31284607F0EBF9044618B3DC
:1041F00000F0DCFE0228039421D801280EBF002124
:104200004FF0FF310120FEF747FF044618B1014689
:10421000039800F03DFD039B0021D88805F006FAC5
:1042200004A850F8043D1E6005F08CF924B1A38960
:1042300020469BB1FEF790FC07F06EFBD1E70A4BDE
:1042400001930093094A0A4B0A490B48FDF7E6F827
:10425000404080F311884FF0040002DF06F0CCFFED
:10426000EAE700BF9C3500208FC6000022CE000088
:10427000C1D3000097CD00002FCD00001FB583896A
:1042800004465BB9114B01930093114A114B12493B
:104290001248FDF7C3F86FF015000AE0027D52B92D
:1042A00000F0C0F908B1FEF755FD204606F0A4FF66
:1042B000002004B010BD054B029301920093044A04
:1042C000044B05490648FDF7A9F8E4E78FC600004E
:1042D00022CE0000CDD3000097CD00002DD40000E9
:1042E0004ED4000037B50C4C0C4D0DF1020101A865
:1042F00005F0F0F80028F8D1019B33B105F070FC0F
:104300000199284607F039F9EFE74FF0FF312046D1
:1043100007F002FCE9E700BF843500209C3500204F
:1043200010B51A4886B005F039FD044660B1184B47
:1043300002938DE81800174A174B18491848FDF7E3
:104340006DF8204606B010BD00F050FE6FF0090376
:10435000039305940494029401940094114B124920
:1043600012484FF43B7207F086FD6FF0070303938A
:10437000059404940294019400940D4B0D490E4849
:1043800040F22C5207F077FDDBE700BF84350020B8
:104390008FC6000022CE0000DDD3000097CD0000C4
:1043A00000D40000E5420000E8180020541200206C
:1043B000DD410000D81B0020EC110020C0F30723D2
:1043C0000870000C8870000A4B70C870704738B5D0
:1043D00008300D460221144606F040FF0570447077
:1043E00038BD000038B504464FF0FF300D46FEF7EB
:1043F00063FEEA1C2060D2B20E21FFF7E8FF2068BE
:104400000321083006F02AFF01230370054B1B88A7
:10441000A0F80130206829460830BDE8384006F091
:104420001DBF00BF2405002070B5044615460132AB
:104430000E460834D2B23E21FFF7C9FF01212046C3
:1044400006F00CFF067029462046BDE8704006F0D5
:1044500005BF000070B504461846134B1646D3E955
:104460000023002203F0005313430D461BD00F4BD3
:10447000D3E90023002302F00802134313D00B22D8
:104480000421FFF7D1FF08220470A0F80160033077
:1044900024B9291DBDE87040FCF784B80021BDE8AF
:1044A0007040FCF7ABB870BD78330020803300203B
:1044B00070B503788AB004460E4607AD032B20D8AA
:1044C000DFE803F002191B1D11492846FCF73EF8EE
:1044D00062780492A2780392E278029222790192A1
:1044E00062790092A37905950A4A1B213046FCF7B0
:1044F000A3FF0AB070BD0849E7E70849E5E70849A6
:10450000E3E7084A0A212846FCF796FFE0E700BFE8
:1045100008C5000031C500000FC5000016C5000029
:1045200020C500002AC500002DE9F041044640786E
:10453000324D92B0014407958B7A03905B425BB297
:10454000069323780192D9090591C3F3801103F0F2
:104550000F03049102930095294B2A4A2A492B48BC
:10456000FCF75CFF237803F00F03072B43D163783C
:10457000002B40D0A3782449039503F03F029B0908
:104580000292019300951E4B1E4A2148FCF746FFFC
:10459000A37899062FD0E378DA0704F104061CD536
:1045A000237812AFC3F3801307F8243D0622314667
:1045B0000DF12C080DF12500FBF7F4FF41463846BC
:1045C000FFF776FF02958DE820010D4B0D4A0E494D
:1045D000104804F10A06FCF721FFE3785B060AD5D0
:1045E000029596F9003001930095054B054A06495E
:1045F0000948FCF713FF12B0BDE8F0818FC6000038
:104600008CD4000090CD000097CD0000AED5000006
:10461000FBD500002CD6000045D6000003460068FC
:1046200059687047F0B5818999B000240229054680
:104630000D940BD8BB4B01930093BB4ABB4BBC49B9
:10464000BC48FCF7EBFE204619B0F0BD8368BA4EBB
:104650001A7858789B7842EA00228B42328007D938
:10466000B04B01930093B04AB04BB149B348E8E76F
:10467000032105F1080006F000FE3388C3F30902A8
:104680009B0A042B68D007D8032B25D001210DA845
:10469000FFF7A8FE01231FE1082B00F0DE803F2B6F
:1046A000F4D1013A092AF1D801A353F822F000BF4E
:1046B000B14A0000DF4A0000074B00008D460000B1
:1046C0008D4600004B4B00008D4600001D4B000046
:1046D000554B0000C14B0000032A13D008D8012A13
:1046E000D4D1A868FFF79AFF954BC3E9000103E016
:1046F0002D2A1AD0632AC9D101210DA8FFF772FE15
:10470000047027E08F4B4FF0FF321A608C4B4FF054
:10471000FF3041F6FF71C3E900018B4B1F200021E0
:10472000C3E9000104F03CFEE6E7AB6804210DA8F4
:104730001D889F78FFF756FEAEB20446C21C39466C
:10474000304604F0BDFE002814BF0223002323706E
:10475000A4F801500D9877E7013A082A96D801A3EA
:1047600053F822F089470000B347000027480000B3
:104770008D4600008D4600008D4600008D460000ED
:104780008D4600004348000009210DA8FFF72AFECE
:10479000002303708370C3706FF00E034371052311
:1047A000092283714FF0FF3342700271C3710372AB
:1047B000D0E741210DA8FFF715FE00210446402255
:1047C00000F8011BFBF71AFFE378217FA27E63F05C
:1047D0007F03E370A37963F03F03A371E37A43F0AF
:1047E0000403E372E37B43F02803E373237C43F089
:1047F00002032374E37D43F00403E375E37E61F079
:104800003C0163F030032177E376617F94F8273031
:1048100041F0080162F0080263F07F036177A2763D
:1048200084F8273096E709210DA8FFF7DBFD00216A
:104830000446082200F8011BFBF7E0FE60236371C9
:1048400088E707210DA8FFF7CDFD0146002301F8F9
:10485000013B1846FFF764FC7CE70B2A00F0198146
:104860003CD8062A00F0F1801ED8022A00F09A8077
:104870000ED8012A7FF40AAFA868FFF7CFFE324BAB
:10488000C3E9000101210DA8FFF7ACFD002323E0DF
:10489000032A00F09380052A7FF4F8AEA96801206E
:1048A000FFF758FC044627E7082A00F0E680C0F02E
:1048B0007F81092A00F0E7800A2A7FF4E7AEAB681F
:1048C000187805F0B5FC044601210DA8FFF78AFD14
:1048D000002C14BF0C23002303703BE7122A00F0C6
:1048E000938035D80F2A7BD013D80C2A7FF4CEAE14
:1048F000AA68144B1078002800F0D7805278002A5C
:1049000000F0D38000221A60104B1A6005F010FDF1
:10491000D9E7102A6FD0112A7FF4B8AEA86805F045
:104920006BFDBFE78FC6000022CE00007DD40000E3
:1049300097CD0000E2D400002405002008D5000037
:104940007833002028050020803300202C0500202B
:10495000182A5DD015D8172A7FF498AEA8680023CE
:104960000EAA00F1100105F04FFE11210DA8FFF76E
:1049700039FD002300F8013B10220EA9FBF712FEBF
:10498000E8E61C2A4FD04B2A7FF480AE03210DA805
:10499000FFF728FD0146002301F8023B0130FFF735
:1049A000F5FBD7E604210DA8FFF71CFD00230370DB
:1049B0001B22837002234270C370CBE609210DA82D
:1049C000FFF710FD00210446082200F8011BFBF749
:1049D00015FE0C2363704023A3700123E370B9E636
:1049E00002210DA8FFF7FEFC00230370044605F02A
:1049F000EBFC6070AEE601210DA8FFF7F3FC044666
:104A000005F0E4FC2070A5E6A86805F02DFD49E757
:104A100009210DA8FFF7E6FC002300F8013B08215F
:104A2000FFF7B8FB96E609210DA8FFF7DBFC01466E
:104A30000022044601F8012B43F23330FFF7BEFC9D
:104A4000611D1046FFF7BAFC84E6A9680B790A8855
:104A50000A9409940894079406940594887B04901A
:104A6000487B0390C81D0290887901904979009194
:104A70002046214605F03AFA14E7AB68591C18782D
:104A800005F038FBFEE6AB68591C187805F08AFB88
:104A9000F8E6AC686379B4F80320B4F80110207824
:104AA000A479009405F024FC0DE74FF0FF322CE7C9
:104AB0000D210DA8FFF796FC02224270C270012260
:104AC00082710B220023C271632203708370037111
:104AD0004371037242728372C37203733AE64121D7
:104AE0000DA8FFF77FFC00210446402200F8011BBF
:104AF000FBF784FD637863F058036370A37843F099
:104B00000303A37026E609210DA8FFF76BFC002123
:104B100000F8011B0822FBF771FD1BE65B4B0EAA98
:104B200003F12806154618685968144603C408336B
:104B3000B3422246F7D129210DA8FFF753FC0023E9
:104B400000F8013B2822294618E7A9680020FFF752
:104B500001FB97E64FF08053D3F8A420013206D131
:104B6000D3F8A8304FF6FF729BB2934220D04FF09B
:104B70008055D5F8A030DB071AD518210DA8FFF70E
:104B800031FC00260123044643700670D5F8A400CA
:104B9000A11CFFF713FCD5F8A830A371C3F30723BA
:104BA00063F03F03E3711022314604F10800B2E7DD
:104BB00002210DA8FFF716FC002303704370C9E51E
:104BC00021210DA8FFF70EFC0346002203F8012B5C
:104BD0004FF080520446D2F8901001314BD0D2F8F9
:104BE0009410013147D0D2F89810013143D0D2F857
:104BF0009C1001313FD0D2F890001946FFF7DEFB40
:104C0000611DD2F89400FFF7D9FB04F10901D2F835
:104C10009800FFF7D3FB04F10D01D2F89C00FFF7D9
:104C2000CDFB4FF08052D2F88030013304F11103F4
:104C300027D0D2F88410013123D0D2F88810013166
:104C40001FD0D2F88C1001311BD0D2F88000194649
:104C5000FFF7B4FB04F11501D2F88400FFF7AEFBB7
:104C600004F11901D2F88800FFF7A8FB04F11D0137
:104C7000D2F88C00E6E6102200211846FBF7BEFCB5
:104C8000CFE710220021184645E700BF36D50000C7
:104C90002DE9F0470379012B90B00446894600F1D5
:104CA000080700F01A81023B032B00F20781DFE8BE
:104CB00003F002B6BCBE01238DF8253003238DF826
:104CC0002630FF238DF827308DF8293002238DF808
:104CD0002A30A54B04228DF82820D3E90023002296
:104CE00003F00053002513438DF8245000F0948006
:104CF0009E4BD3E90023002302F00202134300F08D
:104D00008B809B4E3368AB4200F10A0849DBDFF829
:104D100098A233689D4227DB964DDFF85CA2286895
:104D20000AEBC000062241460230FBF73BFC2B6831
:104D3000227A0AEBC301C2F380124A70227A02F08F
:104D40000F0101228A4031680AF833200F29D5BFAC
:104D50000131013329602B602B68D8BF3160102BE3
:104D60001FD100232B601CE0062251464046FBF772
:104D700004FCF0B9237A1AF8011C1A46C3F3801315
:104D80008B4216D17C4810F8353002F00F0223FA1E
:104D900002F1C90740D4012101FA02F2134300F8DD
:104DA0003530237A03F00F03012B637A05D10026F7
:104DB00005E001350AF1080AABE79E1FF6B223446D
:104DC00006F10B02D2B20221484693F80AA0FFF77F
:104DD0002BFB01230370237A10AA03F00F03134463
:104DE000054613F81C3C4370237AC3F38013837089
:104DF000062241460330FBF7D5FB0A3505F8016C66
:104E0000CAF1000A4FFA8AFA324607F10801284629
:104E1000FBF7C8FB05F806A010B0BDE8F08701223B
:104E200021463846FFF780FBF6E70422F8E74E4BB1
:104E3000D3E90023002203F00053134300F10A06D4
:104E400007D04A4BD3E90023002302F48022134306
:104E500023D1237A10ADC3F38013062231460DF11E
:104E60001D0005F8243DFBF79DFB637A1C4409AE49
:104E7000A47A314628466442FFF71AFB64B23F4BDE
:104E80000493002201920093039402963C4B3D4A06
:104E90003D493E48FCF7C2FABEE7082213214846C6
:104EA000FFF7C2FA00230370237AC3F38013437021
:104EB000062231460230FBF775FBADE72F4B01931D
:104EC0000093334B334A30493348FCF7A7FA40404C
:104ED00080F311884FF0040002DFC17AC5880929E8
:104EE0000BD00C2910D0072938D1027B0E2A2AD1E9
:104EF0004B462A4600211A2003E04B462A463946F3
:104F00000020FFF7A7FA87E7174BD3E90023002318
:104F100002F4006213433FF47FAF08224846FFF7D4
:104F200056FA082109EB010006F098F900230370F6
:104F3000A0F80150237BC370B4F80D308380B4F81F
:104F40000F30C38068E70D4B0293019200930D4A26
:104F5000124B0D491248FCF761FA5DE7074B0193CC
:104F60000093104BAEE700BF783300208033002061
:104F7000280500202C050020300500208FC60000E9
:104F80009ED4000090CD000097CD00005ED50000BB
:104F9000B3D4000022CE00002FCD0000C2D4000008
:104FA00091D50000D1D40000320500200379012BF7
:104FB0000FD00A2B15D8012000FA03F313F4B06FB9
:104FC00012D113F03C0F10D183F0400343F3801053
:104FD0007047037A03F00303032B0CBF0220032066
:104FE00070474FF0FF30704702207047084B4FF07A
:104FF000FF321A60074B4FF0FF3041F6FF71C3E9F3
:105000000001054B1F200021C3E90001704700BFCC
:1050100028050020783300208033002020BF40BFC7
:1050200020BF7047F0B50D4B89B005460E4601AA6A
:1050300003F1180718685968144603C40833BB42C3
:105040002246F7D11B88238008AB1D4415F81C0CA1
:10505000831B5842584109B0F0BD00BFFBC300009C
:105060000860704718B90B6843F000430B60704745
:1050700018B90B6823F000430B60704770B5031D2F
:10508000451E00249D4201D1204670BD15F8016FD8
:105090000022A018082AC0B201D10446F2E716F097
:1050A000010F03D00029F0D00139C9B276080132CE
:1050B000EFE7000010B50C4A92F83A3192F8391136
:1050C0008B4238BF92F8384192F8391138BF1B191A
:1050D0005B1ADBB298429DBF92F83911D2F8343195
:1050E00053F82100002010BDB005002030B590F825
:1050F0005C3090F85D10994228D190F91D30002B5A
:1051000026DBC48C828CA0F86440C48DA0F8622099
:1051100054437D2262434FF47A7492FBF4F2A0F878
:10512000662090F86020012565F30102D2B20023C9
:1051300042F00402013980F87050C36680F86020A4
:1051400080F85D1080F85E50184630BD012030BDFB
:10515000022030BD2DE9F84F0C78944281460F466D
:1051600090463DD01F4ED6F8683133F83430038076
:1051700000254FF0020B06F5AE7A22B2D6F8680190
:10518000B9F800E000EBC20130F83220964520D19A
:105190004868012820F003030AD9F3B1021D1CD08E
:1051A0004279D2B1027902F00302013A012A14D8FD
:1051B000012215444A60EDB213B15146FDF7DFFFFD
:1051C000013496F86C21E4B2A24208BF00244445A1
:1051D000D3D13C702846BDE8F88FC1F804B0EBE7A6
:1051E0000025F7E7B005002010B5094B93F8102112
:1051F000824204460AD902464FF48271D3F808016C
:10520000FDF7D2FF10B1038CA34200D0002010BDE7
:10521000B00500202DE9F04186B00223052805469F
:105220000F4602930CD0062840D045D9073880B2EB
:10523000FFF7DAFF002800F0238190E840010FE03B
:10524000904B9E69D3F81C8002AB00930A468E4BAC
:1052500003210020FEF78EFE022811D0029B9BB98D
:10526000884CA37C03F0FF00002B2DD0874B0193CB
:105270000093874A874B884988480FE0FFF7CEFEA6
:10528000029B022BFAD0E9E7029B012BE8D07F4B6F
:10529000019300937E4A7F4B7F498148FCF7BEF81B
:1052A000404080F311884FF0040002DF754BD3F8C3
:1052B000D060D3F8D480D3E7744B01930093754B3F
:1052C000734A75497748E9E706AB0222A57443F8AB
:1052D000102D032100932A466B4BFEF74BFE02284C
:1052E00025D0029B002B69D1237C9D4202D0637C98
:1052F0009D425FD106AB022243F80C2D00220093A1
:105300000321614B1046FEF735FE02281DD1012214
:1053100011460320FDF7AAFF039B022B15D15B4B1F
:10532000019300935A4A604B5B496048B6E7637C3F
:105330009D4204D1012211460320FDF797FF029BF5
:10534000022BCED1FFF76AFEF9E70398002850D16F
:1053500002230493237C3BB94C4B019300934C4AAA
:10536000514B4D49524899E704AB00930122464BFB
:1053700020740321FEF7FEFD02280FD10122114601
:105380000320FDF773FF049B022B07D13F4B0193D2
:1053900000933F4A444B404946487FE7049A9AB9F4
:1053A00026F00046B04522D9434B11460320FDF7B5
:1053B00085FFA0B9A37C0BB9012302930023A3743A
:1053C000029806B0BDE8F081049B012B53D1002266
:1053D0001146394B0320FDF771FF024638B12B4BC4
:1053E000019300932A4A304B2B49344856E7344BFB
:1053F000DBE7039D012D3ED1FF2F29D006AB022212
:1054000043F8042D032100933A461F4B0020FEF77A
:10541000B1FD02280FD12A4629460320FDF726FFB9
:10542000059B022B07D1194B01930093184A1E4B81
:105430001949244832E7059B53B1059B012B07D03E
:10544000124B01930093124A174B13491E4825E74C
:10545000E37C002BAED01D4B04229A600022114643
:105460000320FDF72BFF0028B9D1E37C002BA1D04E
:10547000FFF7D4FDF9E7054B019300930A4B1FE7B3
:1054800001209EE7B0050020615000008FC600009B
:1054900022CE00000CDA000097CD000015E10000DC
:1054A000D5E000002FCD0000F8D900004DE100004C
:1054B0007EE10000B8E10000C8330020E8E1000010
:1054C000783400200EE2000040E20000F8330020B3
:1054D00013B51D4B04461A7801B3002A32D10128B6
:1054E0000ED01A4B01930093194A1A4B1A491B48C4
:1054F000FBF794FF404080F311884FF0040002DF77
:105500001870174B1146FDF7D9FED8B10F4B019318
:1055100000930F4A0F4B10491248E9E792B11970F6
:1055200070B1012804D1104B002211462046EAE751
:10553000064B01930093064A064B07490B48D7E7F1
:105540000B4BF1E702B010BDC00700208FC6000072
:1055500022CE0000DAD7000097CD00002FDF000038
:10556000383400205FDF0000583400202FCD0000C9
:1055700048340020000000002DE9F04F8BB00024DB
:10558000FF25DFF840918DF81F50804693461F4657
:1055900001F1040A1C60089426460223099309AB12
:1055A0000293414B019308AB00930DF11F025B4640
:1055B00041460020FEF71AFD022814D0099BB3B122
:1055C0003A4B019300933A4A3A4B3B493B48FBF72D
:1055D00025FF404080F311884FF0040002DF414670
:1055E0000020FEF781FD099B022BF8D0E6E79DF82D
:1055F0001F20FF2A4ED0062ACFD999F81031073341
:105600009A42CADA073A92B24FF48271D9F8080185
:10561000FDF7CAFD0028C0D090F91D30002BBCDB7F
:105620000368089AD0F804E0002B12DA816823F0AE
:10563000004371452CBF52187244D21AC168FF2D25
:1056400001F104010B4408D19DF81F501C46164679
:10565000A3E7734538BF7346F0E73146104605931C
:105660000492FEF759FD04EB0A018842049A059B57
:10567000EAD913483444A4FB0001072303FB0411B7
:1056800007A3D3E90023FAF7C5FD803038600BB0DB
:10569000BDE8F08FFF2DECD1F9E700BFAFF300803C
:1056A00000CA9A3B00000000615000008FC6000055
:1056B00022CE000016D8000097CD0000E3E20000E3
:1056C0008D49FD1AB005002070B504780A78C4F33E
:1056D0008013B3EBD21F19D104F00F04012C01F198
:1056E000080600F1020508D0062231462846FAF7DE
:1056F00044FFB0FA80F0400970BD062231462846CA
:10570000FAF73BFF0028EFD1204670BD002070BDA6
:1057100013B51E4A92F8393192F83A1199420ED1D6
:105720001B4B019300931B4A1B4B1C491C48FBF766
:1057300075FE404080F311884FF0040002DF92F8BC
:105740003911D2F8343153F8211092F870310868C9
:105750000B7092F8393192F838410133DBB29C4238
:1057600008BF002382F8393102F5A472FDF736FD37
:1057700038B9074B01930093064A074B074909487C
:10578000D5E702B0BDE8104004F002BBB005002030
:105790008FC6000022CE00008AD9000097CD0000FD
:1057A000DCDF00002FE000000B4A92F8783192F81D
:1057B000791199420ED192F8783102EB4303A3F8A4
:1057C000720192F878310133DBB2032B08BF00235A
:1057D00082F87831704700BFB005002007B570B17E
:1057E000084B01930093084A084B09490948FBF705
:1057F00015FE404080F311884FF0040002DF03B033
:105800005DF804FB8FC6000022CE000026D7000002
:1058100097CD000003E40000012807B5114B16D115
:105820009A7C052A04D100229A7403B05DF804FB27
:105830000D4B019300930D4A0D4B0E490E48FBF79B
:10584000EDFD404080F311884FF0040002DF1B7C27
:10585000052BEAD1044B01930093044A044B0549FC
:105860000648ECE7B00500208FC6000022CE0000FD
:105870003CD7000097CD00002FCD000049E3000089
:10588000012807B5114B16D19A7C062A04D10022B3
:105890009A7403B05DF804FB0D4B019300930D4A1D
:1058A0000D4B0E490E48FBF7B9FD404080F31188BF
:1058B0004FF0040002DF1B7C062BEAD1044B01935E
:1058C0000093044A044B05490648ECE7B005002064
:1058D0008FC6000022CE000053D7000097CD0000F5
:1058E0002FCD0000C4E3000007B590B10A4B9B7CAC
:1058F000052B0ED0094B01930093094A094B0A4925
:105900000A48FBF78BFD404080F311884FF00400FC
:1059100002DF03B05DF804FBB00500208FC6000075
:1059200022CE00006BD7000097CD000030E40000CD
:1059300007B598B10B4B9B7CC9B299420ED00A4B6C
:1059400001930093094A0A4B0A490B48FBF766FD8D
:10595000404080F311884FF0040002DF03B05DF88F
:1059600004FB00BFB00500208FC6000022CE00005F
:1059700084D7000097CD00007FE40000044B1B7D1E
:1059800023B1012100220846FDF770BC704700BF1B
:10599000B0050020062810B50C460AD9094BC21FD5
:1059A00092B24FF48271D3F80801FDF7FDFB20603D
:1059B00010BD052804D00628034818BF002010BDDC
:1059C000024810BDB005002080060020C805002058
:1059D00007B5074B01930093064A074B0749084850
:1059E000FBF71CFD404080F311884FF0040002DFFC
:1059F0008FC6000022CE000068D8000097CD0000BE
:105A00005FDF0000064A08B5936013460022114686
:105A10001046FDF753FC08B1FFF7DAFF08BD00BFE1
:105A2000D833002007B500220B4B11461046FDF776
:105A300045FC70B1094B01930093094A094B0A498F
:105A40000A48FBF7EBFC404080F311884FF004005C
:105A500002DF03B05DF804FB983300208FC600001E
:105A600022CE0000B3D7000097CD00005FDF00001A
:105A700007B500220B4B11461046FDF71FFC70B115
:105A8000094B01930093094A094B0A490A48FBF75D
:105A9000C5FC404080F311884FF0040002DF03B0E2
:105AA0005DF804FB283400208FC6000022CE0000E1
:105AB000CFD7000097CD00005FDF000007B5124A86
:105AC000137840B1591C1170D3B9012003B05DF8AF
:105AD00004EB04F05BB973B90C4B019300930C4ACF
